{
  "_format": "hh-sol-artifact-1",
  "contractName": "UserTicketHub",
  "sourceName": "contracts/UserTicketHub.sol",
  "abi": [
    {
      "inputs": [
        {
          "internalType": "address",
          "name": "_eventFactoryAddress",
          "type": "address"
        }
      ],
      "stateMutability": "nonpayable",
      "type": "constructor"
    },
    {
      "anonymous": false,
      "inputs": [
        {
          "indexed": true,
          "internalType": "address",
          "name": "user",
          "type": "address"
        },
        {
          "indexed": true,
          "internalType": "uint256",
          "name": "eventId",
          "type": "uint256"
        }
      ],
      "name": "EventFavorited",
      "type": "event"
    },
    {
      "anonymous": false,
      "inputs": [
        {
          "indexed": true,
          "internalType": "address",
          "name": "user",
          "type": "address"
        },
        {
          "indexed": true,
          "internalType": "uint256",
          "name": "eventId",
          "type": "uint256"
        }
      ],
      "name": "EventUnfavorited",
      "type": "event"
    },
    {
      "anonymous": false,
      "inputs": [
        {
          "indexed": true,
          "internalType": "address",
          "name": "user",
          "type": "address"
        },
        {
          "indexed": false,
          "internalType": "string",
          "name": "userName",
          "type": "string"
        }
      ],
      "name": "ProfileUpdated",
      "type": "event"
    },
    {
      "anonymous": false,
      "inputs": [
        {
          "indexed": true,
          "internalType": "address",
          "name": "user",
          "type": "address"
        },
        {
          "indexed": true,
          "internalType": "uint256",
          "name": "eventId",
          "type": "uint256"
        },
        {
          "indexed": false,
          "internalType": "uint256",
          "name": "quantity",
          "type": "uint256"
        }
      ],
      "name": "TicketsPurchased",
      "type": "event"
    },
    {
      "anonymous": false,
      "inputs": [
        {
          "indexed": true,
          "internalType": "address",
          "name": "from",
          "type": "address"
        },
        {
          "indexed": true,
          "internalType": "address",
          "name": "to",
          "type": "address"
        },
        {
          "indexed": true,
          "internalType": "uint256",
          "name": "eventId",
          "type": "uint256"
        },
        {
          "indexed": false,
          "internalType": "uint256",
          "name": "quantity",
          "type": "uint256"
        }
      ],
      "name": "TicketsTransferred",
      "type": "event"
    },
    {
      "anonymous": false,
      "inputs": [
        {
          "indexed": true,
          "internalType": "address",
          "name": "from",
          "type": "address"
        },
        {
          "indexed": true,
          "internalType": "address",
          "name": "to",
          "type": "address"
        },
        {
          "indexed": true,
          "internalType": "uint256",
          "name": "eventId",
          "type": "uint256"
        },
        {
          "indexed": false,
          "internalType": "uint256",
          "name": "quantity",
          "type": "uint256"
        }
      ],
      "name": "TransferInitiated",
      "type": "event"
    },
    {
      "anonymous": false,
      "inputs": [
        {
          "indexed": true,
          "internalType": "address",
          "name": "user",
          "type": "address"
        },
        {
          "indexed": false,
          "internalType": "string",
          "name": "userName",
          "type": "string"
        }
      ],
      "name": "UserRegistered",
      "type": "event"
    },
    {
      "inputs": [
        {
          "internalType": "address",
          "name": "from",
          "type": "address"
        },
        {
          "internalType": "uint256",
          "name": "eventId",
          "type": "uint256"
        }
      ],
      "name": "acceptTransfer",
      "outputs": [],
      "stateMutability": "payable",
      "type": "function"
    },
    {
      "inputs": [
        {
          "internalType": "uint256",
          "name": "eventId",
          "type": "uint256"
        },
        {
          "internalType": "uint256",
          "name": "quantity",
          "type": "uint256"
        }
      ],
      "name": "buyTickets",
      "outputs": [],
      "stateMutability": "payable",
      "type": "function"
    },
    {
      "inputs": [],
      "name": "eventFactory",
      "outputs": [
        {
          "internalType": "contract EventFactory",
          "name": "",
          "type": "address"
        }
      ],
      "stateMutability": "view",
      "type": "function"
    },
    {
      "inputs": [
        {
          "internalType": "uint256",
          "name": "eventId",
          "type": "uint256"
        }
      ],
      "name": "favoriteEvent",
      "outputs": [],
      "stateMutability": "nonpayable",
      "type": "function"
    },
    {
      "inputs": [
        {
          "internalType": "address",
          "name": "",
          "type": "address"
        },
        {
          "internalType": "uint256",
          "name": "",
          "type": "uint256"
        }
      ],
      "name": "favoriteEvents",
      "outputs": [
        {
          "internalType": "bool",
          "name": "",
          "type": "bool"
        }
      ],
      "stateMutability": "view",
      "type": "function"
    },
    {
      "inputs": [
        {
          "internalType": "address",
          "name": "user",
          "type": "address"
        }
      ],
      "name": "getUserAttendingEvents",
      "outputs": [
        {
          "internalType": "uint256[]",
          "name": "",
          "type": "uint256[]"
        }
      ],
      "stateMutability": "view",
      "type": "function"
    },
    {
      "inputs": [
        {
          "internalType": "address",
          "name": "user",
          "type": "address"
        }
      ],
      "name": "getUserProfile",
      "outputs": [
        {
          "internalType": "string",
          "name": "userName",
          "type": "string"
        },
        {
          "internalType": "string",
          "name": "email",
          "type": "string"
        },
        {
          "internalType": "bool",
          "name": "isRegistered",
          "type": "bool"
        },
        {
          "internalType": "uint256",
          "name": "totalTicketsOwned",
          "type": "uint256"
        }
      ],
      "stateMutability": "view",
      "type": "function"
    },
    {
      "inputs": [
        {
          "internalType": "address",
          "name": "user",
          "type": "address"
        },
        {
          "internalType": "uint256",
          "name": "eventId",
          "type": "uint256"
        }
      ],
      "name": "getUserTicketCount",
      "outputs": [
        {
          "internalType": "uint256",
          "name": "",
          "type": "uint256"
        }
      ],
      "stateMutability": "view",
      "type": "function"
    },
    {
      "inputs": [
        {
          "internalType": "uint256",
          "name": "eventId",
          "type": "uint256"
        },
        {
          "internalType": "address",
          "name": "to",
          "type": "address"
        },
        {
          "internalType": "uint256",
          "name": "quantity",
          "type": "uint256"
        }
      ],
      "name": "initiateTransfer",
      "outputs": [],
      "stateMutability": "nonpayable",
      "type": "function"
    },
    {
      "inputs": [
        {
          "internalType": "address",
          "name": "user",
          "type": "address"
        },
        {
          "internalType": "uint256",
          "name": "eventId",
          "type": "uint256"
        }
      ],
      "name": "isEventFavorite",
      "outputs": [
        {
          "internalType": "bool",
          "name": "",
          "type": "bool"
        }
      ],
      "stateMutability": "view",
      "type": "function"
    },
    {
      "inputs": [],
      "name": "owner",
      "outputs": [
        {
          "internalType": "address",
          "name": "",
          "type": "address"
        }
      ],
      "stateMutability": "view",
      "type": "function"
    },
    {
      "inputs": [
        {
          "internalType": "address",
          "name": "",
          "type": "address"
        },
        {
          "internalType": "uint256",
          "name": "",
          "type": "uint256"
        },
        {
          "internalType": "address",
          "name": "",
          "type": "address"
        }
      ],
      "name": "pendingTransfers",
      "outputs": [
        {
          "internalType": "uint256",
          "name": "",
          "type": "uint256"
        }
      ],
      "stateMutability": "view",
      "type": "function"
    },
    {
      "inputs": [
        {
          "internalType": "string",
          "name": "userName",
          "type": "string"
        },
        {
          "internalType": "string",
          "name": "email",
          "type": "string"
        }
      ],
      "name": "registerUser",
      "outputs": [],
      "stateMutability": "nonpayable",
      "type": "function"
    },
    {
      "inputs": [
        {
          "internalType": "uint256",
          "name": "eventId",
          "type": "uint256"
        },
        {
          "internalType": "address",
          "name": "to",
          "type": "address"
        },
        {
          "internalType": "uint256",
          "name": "quantity",
          "type": "uint256"
        }
      ],
      "name": "transferTickets",
      "outputs": [],
      "stateMutability": "payable",
      "type": "function"
    },
    {
      "inputs": [
        {
          "internalType": "uint256",
          "name": "eventId",
          "type": "uint256"
        }
      ],
      "name": "unfavoriteEvent",
      "outputs": [],
      "stateMutability": "nonpayable",
      "type": "function"
    },
    {
      "inputs": [
        {
          "internalType": "string",
          "name": "userName",
          "type": "string"
        },
        {
          "internalType": "string",
          "name": "email",
          "type": "string"
        }
      ],
      "name": "updateProfile",
      "outputs": [],
      "stateMutability": "nonpayable",
      "type": "function"
    },
    {
      "inputs": [
        {
          "internalType": "address",
          "name": "",
          "type": "address"
        }
      ],
      "name": "userProfiles",
      "outputs": [
        {
          "internalType": "string",
          "name": "userName",
          "type": "string"
        },
        {
          "internalType": "string",
          "name": "email",
          "type": "string"
        },
        {
          "internalType": "bool",
          "name": "isRegistered",
          "type": "bool"
        },
        {
          "internalType": "uint256",
          "name": "totalTicketsOwned",
          "type": "uint256"
        }
      ],
      "stateMutability": "view",
      "type": "function"
    },
    {
      "inputs": [
        {
          "internalType": "address",
          "name": "",
          "type": "address"
        },
        {
          "internalType": "uint256",
          "name": "",
          "type": "uint256"
        }
      ],
      "name": "userTickets",
      "outputs": [
        {
          "internalType": "uint256",
          "name": "",
          "type": "uint256"
        }
      ],
      "stateMutability": "view",
      "type": "function"
    }
  ],
  "bytecode": "0x60806040523480156200001157600080fd5b50604051620044f1380380620044f1833981810160405281019062000037919062000129565b336000806101000a81548173ffffffffffffffffffffffffffffffffffffffff021916908373ffffffffffffffffffffffffffffffffffffffff16021790555080600160006101000a81548173ffffffffffffffffffffffffffffffffffffffff021916908373ffffffffffffffffffffffffffffffffffffffff160217905550506200015b565b600080fd5b600073ffffffffffffffffffffffffffffffffffffffff82169050919050565b6000620000f182620000c4565b9050919050565b6200010381620000e4565b81146200010f57600080fd5b50565b6000815190506200012381620000f8565b92915050565b600060208284031215620001425762000141620000bf565b5b6000620001528482850162000112565b91505092915050565b614386806200016b6000396000f3fe6080604052600436106101095760003560e01c80638627df4611610095578063c9d3cc6a11610064578063c9d3cc6a14610377578063cf0e9ba8146103a0578063cf260baf146103dd578063e0c4898a1461041a578063feb89aae1461043657610109565b80638627df46146102d45780638da5cb5b146102f0578063987ee1561461031b578063a79a74291461035b57610109565b8063332d56d7116100dc578063332d56d7146101da57806340f50adb1461021a57806342d74b9a14610243578063589b65be1461026c5780636fdbd3f6146102a957610109565b80630246b8f31461010e5780631c164ed81461014b5780631d2e4afd146101885780632f0a1a65146101b1575b600080fd5b34801561011a57600080fd5b5061013560048036038101906101309190613089565b610473565b60405161014291906130d8565b60405180910390f35b34801561015757600080fd5b50610172600480360381019061016d91906130f3565b6104ce565b60405161017f91906131de565b60405180910390f35b34801561019457600080fd5b506101af60048036038101906101aa9190613346565b610568565b005b3480156101bd57600080fd5b506101d860048036038101906101d391906133be565b610773565b005b3480156101e657600080fd5b5061020160048036038101906101fc91906130f3565b6108b2565b6040516102119493929190613485565b60405180910390f35b34801561022657600080fd5b50610241600480360381019061023c91906134d8565b6109ff565b005b34801561024f57600080fd5b5061026a600480360381019061026591906133be565b611056565b005b34801561027857600080fd5b50610293600480360381019061028e9190613089565b61129f565b6040516102a0919061352b565b60405180910390f35b3480156102b557600080fd5b506102be611307565b6040516102cb91906135a5565b60405180910390f35b6102ee60048036038101906102e991906135c0565b61132d565b005b3480156102fc57600080fd5b506103056118d1565b604051610312919061360f565b60405180910390f35b34801561032757600080fd5b50610342600480360381019061033d91906130f3565b6118f5565b6040516103529493929190613485565b60405180910390f35b61037560048036038101906103709190613089565b611b0e565b005b34801561038357600080fd5b5061039e60048036038101906103999190613346565b6123fd565b005b3480156103ac57600080fd5b506103c760048036038101906103c2919061362a565b61257e565b6040516103d491906130d8565b60405180910390f35b3480156103e957600080fd5b5061040460048036038101906103ff9190613089565b6125b0565b60405161041191906130d8565b60405180910390f35b610434600480360381019061042f91906134d8565b6125d5565b005b34801561044257600080fd5b5061045d60048036038101906104589190613089565b612e3b565b60405161046a919061352b565b60405180910390f35b6000600460008473ffffffffffffffffffffffffffffffffffffffff1673ffffffffffffffffffffffffffffffffffffffff168152602001908152602001600020600083815260200190815260200160002054905092915050565b6060600260008373ffffffffffffffffffffffffffffffffffffffff1673ffffffffffffffffffffffffffffffffffffffff16815260200190815260200160002060040180548060200260200160405190810160405280929190818152602001828054801561055c57602002820191906000526020600020905b815481526020019060010190808311610548575b50505050509050919050565b600260003373ffffffffffffffffffffffffffffffffffffffff1673ffffffffffffffffffffffffffffffffffffffff16815260200190815260200160002060020160009054906101000a900460ff16156105f8576040517f08c379a00000000000000000000000000000000000000000000000000000000081526004016105ef906136c9565b60405180910390fd5b6040518060a0016040528083815260200182815260200160011515815260200160008152602001600067ffffffffffffffff81111561063a5761063961321b565b5b6040519080825280602002602001820160405280156106685781602001602082028036833780820191505090505b50815250600260003373ffffffffffffffffffffffffffffffffffffffff1673ffffffffffffffffffffffffffffffffffffffff16815260200190815260200160002060008201518160000190816106c091906138eb565b5060208201518160010190816106d691906138eb565b5060408201518160020160006101000a81548160ff02191690831515021790555060608201518160030155608082015181600401908051906020019061071d929190612f77565b509050503373ffffffffffffffffffffffffffffffffffffffff167f48cac28ad4dc618e15f4c2dd5e97751182f166de97b25618318b2112aa951a2f8360405161076791906139bd565b60405180910390a25050565b600260003373ffffffffffffffffffffffffffffffffffffffff1673ffffffffffffffffffffffffffffffffffffffff16815260200190815260200160002060020160009054906101000a900460ff16610802576040517f08c379a00000000000000000000000000000000000000000000000000000000081526004016107f990613a2b565b60405180910390fd5b6000600360003373ffffffffffffffffffffffffffffffffffffffff1673ffffffffffffffffffffffffffffffffffffffff168152602001908152602001600020600083815260200190815260200160002060006101000a81548160ff021916908315150217905550803373ffffffffffffffffffffffffffffffffffffffff167f86942c40317a6a40360ffcb35c3c6564858469727c71b6b60931bc6ed5e3c57460405160405180910390a350565b60026020528060005260406000206000915090508060000180546108d590613718565b80601f016020809104026020016040519081016040528092919081815260200182805461090190613718565b801561094e5780601f106109235761010080835404028352916020019161094e565b820191906000526020600020905b81548152906001019060200180831161093157829003601f168201915b50505050509080600101805461096390613718565b80601f016020809104026020016040519081016040528092919081815260200182805461098f90613718565b80156109dc5780601f106109b1576101008083540402835291602001916109dc565b820191906000526020600020905b8154815290600101906020018083116109bf57829003601f168201915b5050505050908060020160009054906101000a900460ff16908060030154905084565b600073ffffffffffffffffffffffffffffffffffffffff168273ffffffffffffffffffffffffffffffffffffffff1603610a6e576040517f08c379a0000000000000000000000000000000000000000000000000000000008152600401610a6590613a97565b60405180910390fd5b3373ffffffffffffffffffffffffffffffffffffffff168273ffffffffffffffffffffffffffffffffffffffff1603610adc576040517f08c379a0000000000000000000000000000000000000000000000000000000008152600401610ad390613b03565b60405180910390fd5b80600460003373ffffffffffffffffffffffffffffffffffffffff1673ffffffffffffffffffffffffffffffffffffffff1681526020019081526020016000206000858152602001908152602001600020541015610b6f576040517f08c379a0000000000000000000000000000000000000000000000000000000008152600401610b6690613b6f565b60405180910390fd5b6000600160009054906101000a900473ffffffffffffffffffffffffffffffffffffffff1673ffffffffffffffffffffffffffffffffffffffff166370416b3b856040518263ffffffff1660e01b8152600401610bcc91906130d8565b602060405180830381865afa158015610be9573d6000803e3d6000fd5b505050506040513d601f19601f82011682018060405250810190610c0d9190613ba4565b9050600073ffffffffffffffffffffffffffffffffffffffff168173ffffffffffffffffffffffffffffffffffffffff1603610c7e576040517f08c379a0000000000000000000000000000000000000000000000000000000008152600401610c7590613c1d565b60405180910390fd5b600081905060008173ffffffffffffffffffffffffffffffffffffffff1663f96b61cf6040518163ffffffff1660e01b8152600401602060405180830381865afa158015610cd0573d6000803e3d6000fd5b505050506040513d601f19601f82011682018060405250810190610cf49190613c7b565b905060008273ffffffffffffffffffffffffffffffffffffffff1663e2bb3ccf6040518163ffffffff1660e01b8152600401600060405180830381865afa158015610d43573d6000803e3d6000fd5b505050506040513d6000823e3d601f19601f82011682018060405250810190610d6c9190613d2d565b50505092505050804210610db5576040517f08c379a0000000000000000000000000000000000000000000000000000000008152600401610dac90613e22565b60405180910390fd5b6000600560003373ffffffffffffffffffffffffffffffffffffffff1673ffffffffffffffffffffffffffffffffffffffff168152602001908152602001600020600089815260200190815260200160002060008873ffffffffffffffffffffffffffffffffffffffff1673ffffffffffffffffffffffffffffffffffffffff1681526020019081526020016000205414610e85576040517f08c379a0000000000000000000000000000000000000000000000000000000008152600401610e7c90613e8e565b60405180910390fd5b6000600560008873ffffffffffffffffffffffffffffffffffffffff1673ffffffffffffffffffffffffffffffffffffffff168152602001908152602001600020600089815260200190815260200160002060003373ffffffffffffffffffffffffffffffffffffffff1673ffffffffffffffffffffffffffffffffffffffff1681526020019081526020016000205414610f55576040517f08c379a0000000000000000000000000000000000000000000000000000000008152600401610f4c90613f20565b60405180910390fd5b84600560003373ffffffffffffffffffffffffffffffffffffffff1673ffffffffffffffffffffffffffffffffffffffff168152602001908152602001600020600089815260200190815260200160002060008873ffffffffffffffffffffffffffffffffffffffff1673ffffffffffffffffffffffffffffffffffffffff16815260200190815260200160002081905550868673ffffffffffffffffffffffffffffffffffffffff163373ffffffffffffffffffffffffffffffffffffffff167f6abe792a4e9e702afbc17fdac3c94f6ed1d8c9a8e4917c99672474b3f775ab438860405161104591906130d8565b60405180910390a450505050505050565b600260003373ffffffffffffffffffffffffffffffffffffffff1673ffffffffffffffffffffffffffffffffffffffff16815260200190815260200160002060020160009054906101000a900460ff166110e5576040517f08c379a00000000000000000000000000000000000000000000000000000000081526004016110dc90613a2b565b60405180910390fd5b600073ffffffffffffffffffffffffffffffffffffffff16600160009054906101000a900473ffffffffffffffffffffffffffffffffffffffff1673ffffffffffffffffffffffffffffffffffffffff166370416b3b836040518263ffffffff1660e01b815260040161115891906130d8565b602060405180830381865afa158015611175573d6000803e3d6000fd5b505050506040513d601f19601f820116820180604052508101906111999190613ba4565b73ffffffffffffffffffffffffffffffffffffffff16036111ef576040517f08c379a00000000000000000000000000000000000000000000000000000000081526004016111e690613c1d565b60405180910390fd5b6001600360003373ffffffffffffffffffffffffffffffffffffffff1673ffffffffffffffffffffffffffffffffffffffff168152602001908152602001600020600083815260200190815260200160002060006101000a81548160ff021916908315150217905550803373ffffffffffffffffffffffffffffffffffffffff167fa04e13fa0aea684be266ab5c6b02e849367d3785ccbed0e06dca04c32d3a9f6e60405160405180910390a350565b6000600360008473ffffffffffffffffffffffffffffffffffffffff1673ffffffffffffffffffffffffffffffffffffffff168152602001908152602001600020600083815260200190815260200160002060009054906101000a900460ff16905092915050565b600160009054906101000a900473ffffffffffffffffffffffffffffffffffffffff1681565b6000600160009054906101000a900473ffffffffffffffffffffffffffffffffffffffff1673ffffffffffffffffffffffffffffffffffffffff166370416b3b846040518263ffffffff1660e01b815260040161138a91906130d8565b602060405180830381865afa1580156113a7573d6000803e3d6000fd5b505050506040513d601f19601f820116820180604052508101906113cb9190613ba4565b9050600073ffffffffffffffffffffffffffffffffffffffff168173ffffffffffffffffffffffffffffffffffffffff160361143c576040517f08c379a000000000000000000000000000000000000000000000000000000000815260040161143390613c1d565b60405180910390fd5b600081905060008060008373ffffffffffffffffffffffffffffffffffffffff1663e2bb3ccf6040518163ffffffff1660e01b8152600401600060405180830381865afa158015611491573d6000803e3d6000fd5b505050506040513d6000823e3d601f19601f820116820180604052508101906114ba9190613d2d565b955050945094505050824210611505576040517f08c379a00000000000000000000000000000000000000000000000000000000081526004016114fc90613e22565b60405180910390fd5b85811015611548576040517f08c379a000000000000000000000000000000000000000000000000000000000815260040161153f90613f8c565b60405180910390fd5b85826115549190613fdb565b341015611596576040517f08c379a000000000000000000000000000000000000000000000000000000000815260040161158d90614069565b60405180910390fd5b60008473ffffffffffffffffffffffffffffffffffffffff1663f96b61cf6040518163ffffffff1660e01b8152600401602060405180830381865afa1580156115e3573d6000803e3d6000fd5b505050506040513d601f19601f820116820180604052508101906116079190613c7b565b90508073ffffffffffffffffffffffffffffffffffffffff166367dd74ca34896040518363ffffffff1660e01b815260040161164391906130d8565b6000604051808303818588803b15801561165c57600080fd5b505af1158015611670573d6000803e3d6000fd5b505050505086600460003373ffffffffffffffffffffffffffffffffffffffff1673ffffffffffffffffffffffffffffffffffffffff16815260200190815260200160002060008a815260200190815260200160002060008282546116d59190614089565b9250508190555086600260003373ffffffffffffffffffffffffffffffffffffffff1673ffffffffffffffffffffffffffffffffffffffff168152602001908152602001600020600301600082825461172e9190614089565b925050819055506000805b600260003373ffffffffffffffffffffffffffffffffffffffff1673ffffffffffffffffffffffffffffffffffffffff168152602001908152602001600020600401805490508110156118075789600260003373ffffffffffffffffffffffffffffffffffffffff1673ffffffffffffffffffffffffffffffffffffffff16815260200190815260200160002060040182815481106117db576117da6140bd565b5b9060005260206000200154036117f45760019150611807565b80806117ff906140ec565b915050611739565b508061187757600260003373ffffffffffffffffffffffffffffffffffffffff1673ffffffffffffffffffffffffffffffffffffffff1681526020019081526020016000206004018990806001815401808255809150506001900390600052602060002001600090919091909150555b883373ffffffffffffffffffffffffffffffffffffffff167f7d58f5ddf17a7f65d89554f5d8144ae1dc788046467927063c090f92ed1145dc8a6040516118be91906130d8565b60405180910390a3505050505050505050565b60008054906101000a900473ffffffffffffffffffffffffffffffffffffffff1681565b6060806000806000600260008773ffffffffffffffffffffffffffffffffffffffff1673ffffffffffffffffffffffffffffffffffffffff1681526020019081526020016000206040518060a001604052908160008201805461195790613718565b80601f016020809104026020016040519081016040528092919081815260200182805461198390613718565b80156119d05780601f106119a5576101008083540402835291602001916119d0565b820191906000526020600020905b8154815290600101906020018083116119b357829003601f168201915b505050505081526020016001820180546119e990613718565b80601f0160208091040260200160405190810160405280929190818152602001828054611a1590613718565b8015611a625780601f10611a3757610100808354040283529160200191611a62565b820191906000526020600020905b815481529060010190602001808311611a4557829003601f168201915b505050505081526020016002820160009054906101000a900460ff161515151581526020016003820154815260200160048201805480602002602001604051908101604052809291908181526020018280548015611adf57602002820191906000526020600020905b815481526020019060010190808311611acb575b505050505081525050905080600001518160200151826040015183606001519450945094509450509193509193565b6000600560008473ffffffffffffffffffffffffffffffffffffffff1673ffffffffffffffffffffffffffffffffffffffff168152602001908152602001600020600083815260200190815260200160002060003373ffffffffffffffffffffffffffffffffffffffff1673ffffffffffffffffffffffffffffffffffffffff16815260200190815260200160002054905060008111611be3576040517f08c379a0000000000000000000000000000000000000000000000000000000008152600401611bda90614180565b60405180910390fd5b6000600160009054906101000a900473ffffffffffffffffffffffffffffffffffffffff1673ffffffffffffffffffffffffffffffffffffffff166370416b3b846040518263ffffffff1660e01b8152600401611c4091906130d8565b602060405180830381865afa158015611c5d573d6000803e3d6000fd5b505050506040513d601f19601f82011682018060405250810190611c819190613ba4565b9050600073ffffffffffffffffffffffffffffffffffffffff168173ffffffffffffffffffffffffffffffffffffffff1603611cf2576040517f08c379a0000000000000000000000000000000000000000000000000000000008152600401611ce990613c1d565b60405180910390fd5b600081905060008173ffffffffffffffffffffffffffffffffffffffff1663f96b61cf6040518163ffffffff1660e01b8152600401602060405180830381865afa158015611d44573d6000803e3d6000fd5b505050506040513d601f19601f82011682018060405250810190611d689190613c7b565b90506000808373ffffffffffffffffffffffffffffffffffffffff1663e2bb3ccf6040518163ffffffff1660e01b8152600401600060405180830381865afa158015611db8573d6000803e3d6000fd5b505050506040513d6000823e3d601f19601f82011682018060405250810190611de19190613d2d565b5050935093505050814210611e2b576040517f08c379a0000000000000000000000000000000000000000000000000000000008152600401611e2290613e22565b60405180910390fd5b85600460008a73ffffffffffffffffffffffffffffffffffffffff1673ffffffffffffffffffffffffffffffffffffffff1681526020019081526020016000206000898152602001908152602001600020541015611ebe576040517f08c379a0000000000000000000000000000000000000000000000000000000008152600401611eb590614212565b60405180910390fd5b60008682611ecc9190613fdb565b905080341015611f11576040517f08c379a0000000000000000000000000000000000000000000000000000000008152600401611f08906142a4565b60405180910390fd5b8373ffffffffffffffffffffffffffffffffffffffff1663679ebf1a3489336040518463ffffffff1660e01b8152600401611f4d9291906142c4565b6000604051808303818588803b158015611f6657600080fd5b505af1158015611f7a573d6000803e3d6000fd5b505050505086600460008b73ffffffffffffffffffffffffffffffffffffffff1673ffffffffffffffffffffffffffffffffffffffff16815260200190815260200160002060008a81526020019081526020016000206000828254611fdf91906142ed565b9250508190555086600460003373ffffffffffffffffffffffffffffffffffffffff1673ffffffffffffffffffffffffffffffffffffffff16815260200190815260200160002060008a815260200190815260200160002060008282546120469190614089565b9250508190555086600260008b73ffffffffffffffffffffffffffffffffffffffff1673ffffffffffffffffffffffffffffffffffffffff168152602001908152602001600020600301600082825461209f91906142ed565b92505081905550600260003373ffffffffffffffffffffffffffffffffffffffff1673ffffffffffffffffffffffffffffffffffffffff16815260200190815260200160002060020160009054906101000a900460ff16156122985786600260003373ffffffffffffffffffffffffffffffffffffffff1673ffffffffffffffffffffffffffffffffffffffff168152602001908152602001600020600301600082825461214d9190614089565b925050819055506000805b600260003373ffffffffffffffffffffffffffffffffffffffff1673ffffffffffffffffffffffffffffffffffffffff168152602001908152602001600020600401805490508110156122265789600260003373ffffffffffffffffffffffffffffffffffffffff1673ffffffffffffffffffffffffffffffffffffffff16815260200190815260200160002060040182815481106121fa576121f96140bd565b5b9060005260206000200154036122135760019150612226565b808061221e906140ec565b915050612158565b508061229657600260003373ffffffffffffffffffffffffffffffffffffffff1673ffffffffffffffffffffffffffffffffffffffff1681526020019081526020016000206004018990806001815401808255809150506001900390600052602060002001600090919091909150555b505b6000600460008b73ffffffffffffffffffffffffffffffffffffffff1673ffffffffffffffffffffffffffffffffffffffff16815260200190815260200160002060008a815260200190815260200160002054036122fb576122fa8989612e6a565b5b600560008a73ffffffffffffffffffffffffffffffffffffffff1673ffffffffffffffffffffffffffffffffffffffff168152602001908152602001600020600089815260200190815260200160002060003373ffffffffffffffffffffffffffffffffffffffff1673ffffffffffffffffffffffffffffffffffffffff16815260200190815260200160002060009055873373ffffffffffffffffffffffffffffffffffffffff168a73ffffffffffffffffffffffffffffffffffffffff167ff7e48eef07ea2908eb51d82309e92718d1dcc055b2be4e18f1a0dbd056348e498a6040516123ea91906130d8565b60405180910390a4505050505050505050565b600260003373ffffffffffffffffffffffffffffffffffffffff1673ffffffffffffffffffffffffffffffffffffffff16815260200190815260200160002060020160009054906101000a900460ff1661248c576040517f08c379a000000000000000000000000000000000000000000000000000000000815260040161248390613a2b565b60405180910390fd5b81600260003373ffffffffffffffffffffffffffffffffffffffff1673ffffffffffffffffffffffffffffffffffffffff16815260200190815260200160002060000190816124db91906138eb565b5080600260003373ffffffffffffffffffffffffffffffffffffffff1673ffffffffffffffffffffffffffffffffffffffff168152602001908152602001600020600101908161252b91906138eb565b503373ffffffffffffffffffffffffffffffffffffffff167fdd635a4cd84864e37e4479dbfc2ec667acfa473c83c8422a8ac9d9d07599b01c8360405161257291906139bd565b60405180910390a25050565b600560205282600052604060002060205281600052604060002060205280600052604060002060009250925050505481565b6004602052816000526040600020602052806000526040600020600091509150505481565b600073ffffffffffffffffffffffffffffffffffffffff168273ffffffffffffffffffffffffffffffffffffffff1603612644576040517f08c379a000000000000000000000000000000000000000000000000000000000815260040161263b90613a97565b60405180910390fd5b3373ffffffffffffffffffffffffffffffffffffffff168273ffffffffffffffffffffffffffffffffffffffff16036126b2576040517f08c379a00000000000000000000000000000000000000000000000000000000081526004016126a990613b03565b60405180910390fd5b80600460003373ffffffffffffffffffffffffffffffffffffffff1673ffffffffffffffffffffffffffffffffffffffff1681526020019081526020016000206000858152602001908152602001600020541015612745576040517f08c379a000000000000000000000000000000000000000000000000000000000815260040161273c90613b6f565b60405180910390fd5b6000600160009054906101000a900473ffffffffffffffffffffffffffffffffffffffff1673ffffffffffffffffffffffffffffffffffffffff166370416b3b856040518263ffffffff1660e01b81526004016127a291906130d8565b602060405180830381865afa1580156127bf573d6000803e3d6000fd5b505050506040513d601f19601f820116820180604052508101906127e39190613ba4565b9050600073ffffffffffffffffffffffffffffffffffffffff168173ffffffffffffffffffffffffffffffffffffffff1603612854576040517f08c379a000000000000000000000000000000000000000000000000000000000815260040161284b90613c1d565b60405180910390fd5b600081905060008173ffffffffffffffffffffffffffffffffffffffff1663f96b61cf6040518163ffffffff1660e01b8152600401602060405180830381865afa1580156128a6573d6000803e3d6000fd5b505050506040513d601f19601f820116820180604052508101906128ca9190613c7b565b90506000808373ffffffffffffffffffffffffffffffffffffffff1663e2bb3ccf6040518163ffffffff1660e01b8152600401600060405180830381865afa15801561291a573d6000803e3d6000fd5b505050506040513d6000823e3d601f19601f820116820180604052508101906129439190613d2d565b505093509350505081421061298d576040517f08c379a000000000000000000000000000000000000000000000000000000000815260040161298490613e22565b60405180910390fd5b6000868261299b9190613fdb565b9050803410156129e0576040517f08c379a00000000000000000000000000000000000000000000000000000000081526004016129d7906142a4565b60405180910390fd5b8373ffffffffffffffffffffffffffffffffffffffff1663679ebf1a34898b6040518463ffffffff1660e01b8152600401612a1c9291906142c4565b6000604051808303818588803b158015612a3557600080fd5b505af1158015612a49573d6000803e3d6000fd5b505050505086600460003373ffffffffffffffffffffffffffffffffffffffff1673ffffffffffffffffffffffffffffffffffffffff16815260200190815260200160002060008b81526020019081526020016000206000828254612aae91906142ed565b9250508190555086600460008a73ffffffffffffffffffffffffffffffffffffffff1673ffffffffffffffffffffffffffffffffffffffff16815260200190815260200160002060008b81526020019081526020016000206000828254612b159190614089565b9250508190555086600260003373ffffffffffffffffffffffffffffffffffffffff1673ffffffffffffffffffffffffffffffffffffffff1681526020019081526020016000206003016000828254612b6e91906142ed565b92505081905550600260008973ffffffffffffffffffffffffffffffffffffffff1673ffffffffffffffffffffffffffffffffffffffff16815260200190815260200160002060020160009054906101000a900460ff1615612d675786600260008a73ffffffffffffffffffffffffffffffffffffffff1673ffffffffffffffffffffffffffffffffffffffff1681526020019081526020016000206003016000828254612c1c9190614089565b925050819055506000805b600260008b73ffffffffffffffffffffffffffffffffffffffff1673ffffffffffffffffffffffffffffffffffffffff16815260200190815260200160002060040180549050811015612cf5578a600260008c73ffffffffffffffffffffffffffffffffffffffff1673ffffffffffffffffffffffffffffffffffffffff1681526020019081526020016000206004018281548110612cc957612cc86140bd565b5b906000526020600020015403612ce25760019150612cf5565b8080612ced906140ec565b915050612c27565b5080612d6557600260008a73ffffffffffffffffffffffffffffffffffffffff1673ffffffffffffffffffffffffffffffffffffffff1681526020019081526020016000206004018a90806001815401808255809150506001900390600052602060002001600090919091909150555b505b6000600460003373ffffffffffffffffffffffffffffffffffffffff1673ffffffffffffffffffffffffffffffffffffffff16815260200190815260200160002060008b81526020019081526020016000205403612dca57612dc9338a612e6a565b5b888873ffffffffffffffffffffffffffffffffffffffff163373ffffffffffffffffffffffffffffffffffffffff167ff7e48eef07ea2908eb51d82309e92718d1dcc055b2be4e18f1a0dbd056348e498a604051612e2891906130d8565b60405180910390a4505050505050505050565b60036020528160005260406000206020528060005260406000206000915091509054906101000a900460ff1681565b6000600260008473ffffffffffffffffffffffffffffffffffffffff1673ffffffffffffffffffffffffffffffffffffffff168152602001908152602001600020600401905060005b8180549050811015612f715782828281548110612ed357612ed26140bd565b5b906000526020600020015403612f5e578160018380549050612ef591906142ed565b81548110612f0657612f056140bd565b5b9060005260206000200154828281548110612f2457612f236140bd565b5b906000526020600020018190555081805480612f4357612f42614321565b5b60019003818190600052602060002001600090559055612f71565b8080612f69906140ec565b915050612eb3565b50505050565b828054828255906000526020600020908101928215612fb3579160200282015b82811115612fb2578251825591602001919060010190612f97565b5b509050612fc09190612fc4565b5090565b5b80821115612fdd576000816000905550600101612fc5565b5090565b6000604051905090565b600080fd5b600080fd5b600073ffffffffffffffffffffffffffffffffffffffff82169050919050565b600061302082612ff5565b9050919050565b61303081613015565b811461303b57600080fd5b50565b60008135905061304d81613027565b92915050565b6000819050919050565b61306681613053565b811461307157600080fd5b50565b6000813590506130838161305d565b92915050565b600080604083850312156130a05761309f612feb565b5b60006130ae8582860161303e565b92505060206130bf85828601613074565b9150509250929050565b6130d281613053565b82525050565b60006020820190506130ed60008301846130c9565b92915050565b60006020828403121561310957613108612feb565b5b60006131178482850161303e565b91505092915050565b600081519050919050565b600082825260208201905092915050565b6000819050602082019050919050565b61315581613053565b82525050565b6000613167838361314c565b60208301905092915050565b6000602082019050919050565b600061318b82613120565b613195818561312b565b93506131a08361313c565b8060005b838110156131d15781516131b8888261315b565b97506131c383613173565b9250506001810190506131a4565b5085935050505092915050565b600060208201905081810360008301526131f88184613180565b905092915050565b600080fd5b600080fd5b6000601f19601f8301169050919050565b7f4e487b7100000000000000000000000000000000000000000000000000000000600052604160045260246000fd5b6132538261320a565b810181811067ffffffffffffffff821117156132725761327161321b565b5b80604052505050565b6000613285612fe1565b9050613291828261324a565b919050565b600067ffffffffffffffff8211156132b1576132b061321b565b5b6132ba8261320a565b9050602081019050919050565b82818337600083830152505050565b60006132e96132e484613296565b61327b565b90508281526020810184848401111561330557613304613205565b5b6133108482856132c7565b509392505050565b600082601f83011261332d5761332c613200565b5b813561333d8482602086016132d6565b91505092915050565b6000806040838503121561335d5761335c612feb565b5b600083013567ffffffffffffffff81111561337b5761337a612ff0565b5b61338785828601613318565b925050602083013567ffffffffffffffff8111156133a8576133a7612ff0565b5b6133b485828601613318565b9150509250929050565b6000602082840312156133d4576133d3612feb565b5b60006133e284828501613074565b91505092915050565b600081519050919050565b600082825260208201905092915050565b60005b8381101561342557808201518184015260208101905061340a565b60008484015250505050565b600061343c826133eb565b61344681856133f6565b9350613456818560208601613407565b61345f8161320a565b840191505092915050565b60008115159050919050565b61347f8161346a565b82525050565b6000608082019050818103600083015261349f8187613431565b905081810360208301526134b38186613431565b90506134c26040830185613476565b6134cf60608301846130c9565b95945050505050565b6000806000606084860312156134f1576134f0612feb565b5b60006134ff86828701613074565b93505060206135108682870161303e565b925050604061352186828701613074565b9150509250925092565b60006020820190506135406000830184613476565b92915050565b6000819050919050565b600061356b61356661356184612ff5565b613546565b612ff5565b9050919050565b600061357d82613550565b9050919050565b600061358f82613572565b9050919050565b61359f81613584565b82525050565b60006020820190506135ba6000830184613596565b92915050565b600080604083850312156135d7576135d6612feb565b5b60006135e585828601613074565b92505060206135f685828601613074565b9150509250929050565b61360981613015565b82525050565b60006020820190506136246000830184613600565b92915050565b60008060006060848603121561364357613642612feb565b5b60006136518682870161303e565b935050602061366286828701613074565b92505060406136738682870161303e565b9150509250925092565b7f5573657220616c72656164792072656769737465726564000000000000000000600082015250565b60006136b36017836133f6565b91506136be8261367d565b602082019050919050565b600060208201905081810360008301526136e2816136a6565b9050919050565b7f4e487b7100000000000000000000000000000000000000000000000000000000600052602260045260246000fd5b6000600282049050600182168061373057607f821691505b602082108103613743576137426136e9565b5b50919050565b60008190508160005260206000209050919050565b60006020601f8301049050919050565b600082821b905092915050565b6000600883026137ab7fffffffffffffffffffffffffffffffffffffffffffffffffffffffffffffffff8261376e565b6137b5868361376e565b95508019841693508086168417925050509392505050565b60006137e86137e36137de84613053565b613546565b613053565b9050919050565b6000819050919050565b613802836137cd565b61381661380e826137ef565b84845461377b565b825550505050565b600090565b61382b61381e565b6138368184846137f9565b505050565b5b8181101561385a5761384f600082613823565b60018101905061383c565b5050565b601f82111561389f5761387081613749565b6138798461375e565b81016020851015613888578190505b61389c6138948561375e565b83018261383b565b50505b505050565b600082821c905092915050565b60006138c2600019846008026138a4565b1980831691505092915050565b60006138db83836138b1565b9150826002028217905092915050565b6138f4826133eb565b67ffffffffffffffff81111561390d5761390c61321b565b5b6139178254613718565b61392282828561385e565b600060209050601f8311600181146139555760008415613943578287015190505b61394d85826138cf565b8655506139b5565b601f19841661396386613749565b60005b8281101561398b57848901518255600182019150602085019450602081019050613966565b868310156139a857848901516139a4601f8916826138b1565b8355505b6001600288020188555050505b505050505050565b600060208201905081810360008301526139d78184613431565b905092915050565b7f55736572206e6f74207265676973746572656400000000000000000000000000600082015250565b6000613a156013836133f6565b9150613a20826139df565b602082019050919050565b60006020820190508181036000830152613a4481613a08565b9050919050565b7f43616e6e6f74207472616e7366657220746f207a65726f206164647265737300600082015250565b6000613a81601f836133f6565b9150613a8c82613a4b565b602082019050919050565b60006020820190508181036000830152613ab081613a74565b9050919050565b7f43616e6e6f74207472616e7366657220746f20796f757273656c660000000000600082015250565b6000613aed601b836133f6565b9150613af882613ab7565b602082019050919050565b60006020820190508181036000830152613b1c81613ae0565b9050919050565b7f496e73756666696369656e74207469636b657473206f776e6564000000000000600082015250565b6000613b59601a836133f6565b9150613b6482613b23565b602082019050919050565b60006020820190508181036000830152613b8881613b4c565b9050919050565b600081519050613b9e81613027565b92915050565b600060208284031215613bba57613bb9612feb565b5b6000613bc884828501613b8f565b91505092915050565b7f4576656e7420646f6573206e6f74206578697374000000000000000000000000600082015250565b6000613c076014836133f6565b9150613c1282613bd1565b602082019050919050565b60006020820190508181036000830152613c3681613bfa565b9050919050565b6000613c4882613015565b9050919050565b613c5881613c3d565b8114613c6357600080fd5b50565b600081519050613c7581613c4f565b92915050565b600060208284031215613c9157613c90612feb565b5b6000613c9f84828501613c66565b91505092915050565b6000613cbb613cb684613296565b61327b565b905082815260208101848484011115613cd757613cd6613205565b5b613ce2848285613407565b509392505050565b600082601f830112613cff57613cfe613200565b5b8151613d0f848260208601613ca8565b91505092915050565b600081519050613d278161305d565b92915050565b60008060008060008060c08789031215613d4a57613d49612feb565b5b6000613d5889828a01613b8f565b965050602087015167ffffffffffffffff811115613d7957613d78612ff0565b5b613d8589828a01613cea565b9550506040613d9689828a01613d18565b9450506060613da789828a01613d18565b9350506080613db889828a01613d18565b92505060a0613dc989828a01613d18565b9150509295509295509295565b7f4576656e742068617320616c7265616479206f63637572726564000000000000600082015250565b6000613e0c601a836133f6565b9150613e1782613dd6565b602082019050919050565b60006020820190508181036000830152613e3b81613dff565b9050919050565b7f5472616e7366657220616c726561647920696e69746961746564000000000000600082015250565b6000613e78601a836133f6565b9150613e8382613e42565b602082019050919050565b60006020820190508181036000830152613ea781613e6b565b9050919050565b7f526563697069656e742068617320612070656e64696e67207472616e7366657260008201527f20746f2073656e64657200000000000000000000000000000000000000000000602082015250565b6000613f0a602a836133f6565b9150613f1582613eae565b604082019050919050565b60006020820190508181036000830152613f3981613efd565b9050919050565b7f4e6f7420656e6f756768207469636b65747320617661696c61626c6500000000600082015250565b6000613f76601c836133f6565b9150613f8182613f40565b602082019050919050565b60006020820190508181036000830152613fa581613f69565b9050919050565b7f4e487b7100000000000000000000000000000000000000000000000000000000600052601160045260246000fd5b6000613fe682613053565b9150613ff183613053565b9250828202613fff81613053565b9150828204841483151761401657614015613fac565b5b5092915050565b7f496e73756666696369656e742045746865722073656e74000000000000000000600082015250565b60006140536017836133f6565b915061405e8261401d565b602082019050919050565b6000602082019050818103600083015261408281614046565b9050919050565b600061409482613053565b915061409f83613053565b92508282019050808211156140b7576140b6613fac565b5b92915050565b7f4e487b7100000000000000000000000000000000000000000000000000000000600052603260045260246000fd5b60006140f782613053565b91507fffffffffffffffffffffffffffffffffffffffffffffffffffffffffffffffff820361412957614128613fac565b5b600182019050919050565b7f4e6f2070656e64696e67207472616e7366657220666f756e6400000000000000600082015250565b600061416a6019836133f6565b915061417582614134565b602082019050919050565b600060208201905081810360008301526141998161415d565b9050919050565b7f53656e646572206e6f206c6f6e6765722068617320656e6f756768207469636b60008201527f6574730000000000000000000000000000000000000000000000000000000000602082015250565b60006141fc6023836133f6565b9150614207826141a0565b604082019050919050565b6000602082019050818103600083015261422b816141ef565b9050919050565b7f496e73756666696369656e74207061796d656e742066726f6d2072656369706960008201527f656e740000000000000000000000000000000000000000000000000000000000602082015250565b600061428e6023836133f6565b915061429982614232565b604082019050919050565b600060208201905081810360008301526142bd81614281565b9050919050565b60006040820190506142d960008301856130c9565b6142e66020830184613600565b9392505050565b60006142f882613053565b915061430383613053565b925082820390508181111561431b5761431a613fac565b5b92915050565b7f4e487b7100000000000000000000000000000000000000000000000000000000600052603160045260246000fdfea26469706673582212200039bcd32aa3115450c02767c13da966dcb2434bb1b7a62571438d678c16c99f64736f6c63430008120033",
  "linkReferences": {},
  "deployedLinkReferences": {}
}