{
  "_format": "hh-sol-artifact-1",
  "contractName": "EventDiscovery",
  "sourceName": "contracts/EventDiscovery.sol",
  "abi": [
    {
      "inputs": [
        {
          "internalType": "address",
          "name": "_eventFactoryAddress",
          "type": "address"
        }
      ],
      "stateMutability": "nonpayable",
      "type": "constructor"
    },
    {
      "anonymous": false,
      "inputs": [
        {
          "indexed": true,
          "internalType": "uint256",
          "name": "eventId",
          "type": "uint256"
        }
      ],
      "name": "EventFeatured",
      "type": "event"
    },
    {
      "anonymous": false,
      "inputs": [
        {
          "indexed": true,
          "internalType": "uint256",
          "name": "eventId",
          "type": "uint256"
        },
        {
          "indexed": false,
          "internalType": "enum EventDiscovery.Category",
          "name": "category",
          "type": "uint8"
        }
      ],
      "name": "EventMetadataAdded",
      "type": "event"
    },
    {
      "anonymous": false,
      "inputs": [
        {
          "indexed": true,
          "internalType": "uint256",
          "name": "eventId",
          "type": "uint256"
        },
        {
          "indexed": false,
          "internalType": "uint256",
          "name": "newPopularity",
          "type": "uint256"
        }
      ],
      "name": "EventPopularityUpdated",
      "type": "event"
    },
    {
      "anonymous": false,
      "inputs": [
        {
          "indexed": true,
          "internalType": "uint256",
          "name": "eventId",
          "type": "uint256"
        }
      ],
      "name": "EventUnfeatured",
      "type": "event"
    },
    {
      "inputs": [
        {
          "internalType": "uint256",
          "name": "eventId",
          "type": "uint256"
        },
        {
          "internalType": "enum EventDiscovery.Category",
          "name": "category",
          "type": "uint8"
        },
        {
          "internalType": "string",
          "name": "location",
          "type": "string"
        },
        {
          "internalType": "string",
          "name": "description",
          "type": "string"
        },
        {
          "internalType": "string",
          "name": "imageHash",
          "type": "string"
        }
      ],
      "name": "addEventMetadata",
      "outputs": [],
      "stateMutability": "nonpayable",
      "type": "function"
    },
    {
      "inputs": [],
      "name": "eventFactory",
      "outputs": [
        {
          "internalType": "contract EventFactory",
          "name": "",
          "type": "address"
        }
      ],
      "stateMutability": "view",
      "type": "function"
    },
    {
      "inputs": [
        {
          "internalType": "uint256",
          "name": "",
          "type": "uint256"
        }
      ],
      "name": "eventMetadata",
      "outputs": [
        {
          "internalType": "uint256",
          "name": "eventId",
          "type": "uint256"
        },
        {
          "internalType": "enum EventDiscovery.Category",
          "name": "category",
          "type": "uint8"
        },
        {
          "internalType": "string",
          "name": "location",
          "type": "string"
        },
        {
          "internalType": "string",
          "name": "description",
          "type": "string"
        },
        {
          "internalType": "string",
          "name": "imageHash",
          "type": "string"
        },
        {
          "internalType": "uint256",
          "name": "createdAt",
          "type": "uint256"
        },
        {
          "internalType": "bool",
          "name": "isFeatured",
          "type": "bool"
        },
        {
          "internalType": "uint256",
          "name": "popularity",
          "type": "uint256"
        }
      ],
      "stateMutability": "view",
      "type": "function"
    },
    {
      "inputs": [
        {
          "internalType": "uint256",
          "name": "",
          "type": "uint256"
        },
        {
          "internalType": "uint256",
          "name": "",
          "type": "uint256"
        }
      ],
      "name": "eventsByCategory",
      "outputs": [
        {
          "internalType": "uint256",
          "name": "",
          "type": "uint256"
        }
      ],
      "stateMutability": "view",
      "type": "function"
    },
    {
      "inputs": [
        {
          "internalType": "uint256",
          "name": "eventId",
          "type": "uint256"
        }
      ],
      "name": "featureEvent",
      "outputs": [],
      "stateMutability": "nonpayable",
      "type": "function"
    },
    {
      "inputs": [
        {
          "internalType": "uint256",
          "name": "",
          "type": "uint256"
        }
      ],
      "name": "featuredEvents",
      "outputs": [
        {
          "internalType": "uint256",
          "name": "",
          "type": "uint256"
        }
      ],
      "stateMutability": "view",
      "type": "function"
    },
    {
      "inputs": [
        {
          "internalType": "enum EventDiscovery.Category",
          "name": "category",
          "type": "uint8"
        }
      ],
      "name": "getCategoryEventCount",
      "outputs": [
        {
          "internalType": "uint256",
          "name": "",
          "type": "uint256"
        }
      ],
      "stateMutability": "view",
      "type": "function"
    },
    {
      "inputs": [
        {
          "internalType": "uint256",
          "name": "eventId",
          "type": "uint256"
        }
      ],
      "name": "getEventMetadata",
      "outputs": [
        {
          "internalType": "enum EventDiscovery.Category",
          "name": "category",
          "type": "uint8"
        },
        {
          "internalType": "string",
          "name": "location",
          "type": "string"
        },
        {
          "internalType": "string",
          "name": "description",
          "type": "string"
        },
        {
          "internalType": "string",
          "name": "imageHash",
          "type": "string"
        },
        {
          "internalType": "uint256",
          "name": "createdAt",
          "type": "uint256"
        },
        {
          "internalType": "bool",
          "name": "isFeatured",
          "type": "bool"
        },
        {
          "internalType": "uint256",
          "name": "popularity",
          "type": "uint256"
        }
      ],
      "stateMutability": "view",
      "type": "function"
    },
    {
      "inputs": [
        {
          "internalType": "enum EventDiscovery.Category",
          "name": "category",
          "type": "uint8"
        },
        {
          "internalType": "uint256",
          "name": "count",
          "type": "uint256"
        }
      ],
      "name": "getEventsByCategory",
      "outputs": [
        {
          "internalType": "uint256[]",
          "name": "",
          "type": "uint256[]"
        }
      ],
      "stateMutability": "view",
      "type": "function"
    },
    {
      "inputs": [
        {
          "internalType": "uint256",
          "name": "count",
          "type": "uint256"
        }
      ],
      "name": "getFeaturedEvents",
      "outputs": [
        {
          "internalType": "uint256[]",
          "name": "",
          "type": "uint256[]"
        }
      ],
      "stateMutability": "view",
      "type": "function"
    },
    {
      "inputs": [
        {
          "internalType": "uint256",
          "name": "eventId",
          "type": "uint256"
        }
      ],
      "name": "unfeatureEvent",
      "outputs": [],
      "stateMutability": "nonpayable",
      "type": "function"
    },
    {
      "inputs": [
        {
          "internalType": "uint256",
          "name": "eventId",
          "type": "uint256"
        },
        {
          "internalType": "uint256",
          "name": "newPopularity",
          "type": "uint256"
        }
      ],
      "name": "updateEventPopularity",
      "outputs": [],
      "stateMutability": "nonpayable",
      "type": "function"
    }
  ],
  "bytecode": "0x60806040523480156200001157600080fd5b5060405162002782380380620027828339818101604052810190620000379190620000e8565b806000806101000a81548173ffffffffffffffffffffffffffffffffffffffff021916908373ffffffffffffffffffffffffffffffffffffffff160217905550506200011a565b600080fd5b600073ffffffffffffffffffffffffffffffffffffffff82169050919050565b6000620000b08262000083565b9050919050565b620000c281620000a3565b8114620000ce57600080fd5b50565b600081519050620000e281620000b7565b92915050565b6000602082840312156200010157620001006200007e565b5b60006200011184828501620000d1565b91505092915050565b612658806200012a6000396000f3fe608060405234801561001057600080fd5b50600436106100b45760003560e01c806370ddec881161007157806370ddec88146101a6578063803fd75a146101dc57806396c79bbe1461020c578063a396193e14610228578063ac619a5714610258578063f36db9a014610274576100b4565b80630e4bd786146100b9578063251b30a9146100f057806359cf19e1146101205780635b5f95781461013c578063671416a61461016c5780636fdbd3f614610188575b600080fd5b6100d360048036038101906100ce9190611691565b6102a4565b6040516100e79897969594939291906117ef565b60405180910390f35b61010a60048036038101906101059190611882565b61049e565b60405161011791906118c2565b60405180910390f35b61013a60048036038101906101359190611691565b6104cf565b005b61015660048036038101906101519190611902565b6107d8565b60405161016391906118c2565b60405180910390f35b61018660048036038101906101819190611691565b61080a565b005b610190610b5c565b60405161019d91906119ae565b60405180910390f35b6101c060048036038101906101bb9190611691565b610b80565b6040516101d397969594939291906119c9565b60405180910390f35b6101f660048036038101906101f19190611691565b610e5b565b6040516102039190611b0b565b60405180910390f35b61022660048036038101906102219190611882565b610f2e565b005b610242600480360381019061023d9190611691565b611186565b60405161024f91906118c2565b60405180910390f35b610272600480360381019061026d9190611c62565b6111aa565b005b61028e60048036038101906102899190611d31565b61154c565b60405161029b9190611b0b565b60405180910390f35b60016020528060005260406000206000915090508060000154908060010160009054906101000a900460ff16908060020180546102e090611da0565b80601f016020809104026020016040519081016040528092919081815260200182805461030c90611da0565b80156103595780601f1061032e57610100808354040283529160200191610359565b820191906000526020600020905b81548152906001019060200180831161033c57829003601f168201915b50505050509080600301805461036e90611da0565b80601f016020809104026020016040519081016040528092919081815260200182805461039a90611da0565b80156103e75780601f106103bc576101008083540402835291602001916103e7565b820191906000526020600020905b8154815290600101906020018083116103ca57829003601f168201915b5050505050908060040180546103fc90611da0565b80601f016020809104026020016040519081016040528092919081815260200182805461042890611da0565b80156104755780601f1061044a57610100808354040283529160200191610475565b820191906000526020600020905b81548152906001019060200180831161045857829003601f168201915b5050505050908060050154908060060160009054906101000a900460ff16908060070154905088565b600360205281600052604060002081815481106104ba57600080fd5b90600052602060002001600091509150505481565b60008060009054906101000a900473ffffffffffffffffffffffffffffffffffffffff1673ffffffffffffffffffffffffffffffffffffffff166370416b3b836040518263ffffffff1660e01b815260040161052b91906118c2565b602060405180830381865afa158015610548573d6000803e3d6000fd5b505050506040513d601f19601f8201168201806040525081019061056c9190611e0f565b9050600073ffffffffffffffffffffffffffffffffffffffff168173ffffffffffffffffffffffffffffffffffffffff16036105dd576040517f08c379a00000000000000000000000000000000000000000000000000000000081526004016105d490611e88565b60405180910390fd5b81600160008481526020019081526020016000206000015414610635576040517f08c379a000000000000000000000000000000000000000000000000000000000815260040161062c90611ef4565b60405180910390fd5b600081905060008173ffffffffffffffffffffffffffffffffffffffff1663e2bb3ccf6040518163ffffffff1660e01b8152600401600060405180830381865afa158015610687573d6000803e3d6000fd5b505050506040513d6000823e3d601f19601f820116820180604052508101906106b09190611f99565b505050505090508073ffffffffffffffffffffffffffffffffffffffff163373ffffffffffffffffffffffffffffffffffffffff1614610725576040517f08c379a000000000000000000000000000000000000000000000000000000000815260040161071c906120b4565b60405180910390fd5b6001600085815260200190815260200160002060060160009054906101000a900460ff166107d257600180600086815260200190815260200160002060060160006101000a81548160ff0219169083151502179055506002849080600181540180825580915050600190039060005260206000200160009091909190915055837f0c000a4be8db8b49fc36e09f2d003db829c76bacd89bc85413f2da86799891b060405160405180910390a25b50505050565b6000600360008360058111156107f1576107f06116cd565b5b8152602001908152602001600020805490509050919050565b60008060009054906101000a900473ffffffffffffffffffffffffffffffffffffffff1673ffffffffffffffffffffffffffffffffffffffff166370416b3b836040518263ffffffff1660e01b815260040161086691906118c2565b602060405180830381865afa158015610883573d6000803e3d6000fd5b505050506040513d601f19601f820116820180604052508101906108a79190611e0f565b9050600073ffffffffffffffffffffffffffffffffffffffff168173ffffffffffffffffffffffffffffffffffffffff1603610918576040517f08c379a000000000000000000000000000000000000000000000000000000000815260040161090f90611e88565b60405180910390fd5b600081905060008173ffffffffffffffffffffffffffffffffffffffff1663e2bb3ccf6040518163ffffffff1660e01b8152600401600060405180830381865afa15801561096a573d6000803e3d6000fd5b505050506040513d6000823e3d601f19601f820116820180604052508101906109939190611f99565b505050505090508073ffffffffffffffffffffffffffffffffffffffff163373ffffffffffffffffffffffffffffffffffffffff1614610a08576040517f08c379a00000000000000000000000000000000000000000000000000000000081526004016109ff90612146565b60405180910390fd5b6001600085815260200190815260200160002060060160009054906101000a900460ff1615610b565760006001600086815260200190815260200160002060060160006101000a81548160ff02191690831515021790555060005b600280549050811015610b27578460028281548110610a8557610a84612166565b5b906000526020600020015403610b145760026001600280549050610aa991906121c4565b81548110610aba57610ab9612166565b5b906000526020600020015460028281548110610ad957610ad8612166565b5b90600052602060002001819055506002805480610af957610af86121f8565b5b60019003818190600052602060002001600090559055610b27565b8080610b1f90612227565b915050610a63565b50837fd2397489c264ad0e21ef84c0e0c079e5533e7092f312be7632c449b636972ea760405160405180910390a25b50505050565b60008054906101000a900473ffffffffffffffffffffffffffffffffffffffff1681565b60006060806060600080600080600160008a815260200190815260200160002060405180610100016040529081600082015481526020016001820160009054906101000a900460ff166005811115610bdb57610bda6116cd565b5b6005811115610bed57610bec6116cd565b5b8152602001600282018054610c0190611da0565b80601f0160208091040260200160405190810160405280929190818152602001828054610c2d90611da0565b8015610c7a5780601f10610c4f57610100808354040283529160200191610c7a565b820191906000526020600020905b815481529060010190602001808311610c5d57829003601f168201915b50505050508152602001600382018054610c9390611da0565b80601f0160208091040260200160405190810160405280929190818152602001828054610cbf90611da0565b8015610d0c5780601f10610ce157610100808354040283529160200191610d0c565b820191906000526020600020905b815481529060010190602001808311610cef57829003601f168201915b50505050508152602001600482018054610d2590611da0565b80601f0160208091040260200160405190810160405280929190818152602001828054610d5190611da0565b8015610d9e5780601f10610d7357610100808354040283529160200191610d9e565b820191906000526020600020905b815481529060010190602001808311610d8157829003601f168201915b50505050508152602001600582015481526020016006820160009054906101000a900460ff16151515158152602001600782015481525050905088816000015114610e1e576040517f08c379a0000000000000000000000000000000000000000000000000000000008152600401610e1590611ef4565b60405180910390fd5b80602001518160400151826060015183608001518460a001518560c001518660e00151975097509750975097509750975050919395979092949650565b606060006002805490508310610e7657600280549050610e78565b825b905060008167ffffffffffffffff811115610e9657610e95611b37565b5b604051908082528060200260200182016040528015610ec45781602001602082028036833780820191505090505b50905060005b82811015610f235760028181548110610ee657610ee5612166565b5b9060005260206000200154828281518110610f0457610f03612166565b5b6020026020010181815250508080610f1b90612227565b915050610eca565b508092505050919050565b60008060009054906101000a900473ffffffffffffffffffffffffffffffffffffffff1673ffffffffffffffffffffffffffffffffffffffff166370416b3b846040518263ffffffff1660e01b8152600401610f8a91906118c2565b602060405180830381865afa158015610fa7573d6000803e3d6000fd5b505050506040513d601f19601f82011682018060405250810190610fcb9190611e0f565b9050600073ffffffffffffffffffffffffffffffffffffffff168173ffffffffffffffffffffffffffffffffffffffff160361103c576040517f08c379a000000000000000000000000000000000000000000000000000000000815260040161103390611e88565b60405180910390fd5b600081905060008173ffffffffffffffffffffffffffffffffffffffff1663e2bb3ccf6040518163ffffffff1660e01b8152600401600060405180830381865afa15801561108e573d6000803e3d6000fd5b505050506040513d6000823e3d601f19601f820116820180604052508101906110b79190611f99565b505050505090508073ffffffffffffffffffffffffffffffffffffffff163373ffffffffffffffffffffffffffffffffffffffff161461112c576040517f08c379a0000000000000000000000000000000000000000000000000000000008152600401611123906122e1565b60405180910390fd5b836001600087815260200190815260200160002060070181905550847f9484e98c9a27e202688c9594e34ff3a3a1bde3acfcf4d14b344dba92c7a409f68560405161117791906118c2565b60405180910390a25050505050565b6002818154811061119657600080fd5b906000526020600020016000915090505481565b60008060009054906101000a900473ffffffffffffffffffffffffffffffffffffffff1673ffffffffffffffffffffffffffffffffffffffff166370416b3b876040518263ffffffff1660e01b815260040161120691906118c2565b602060405180830381865afa158015611223573d6000803e3d6000fd5b505050506040513d601f19601f820116820180604052508101906112479190611e0f565b9050600073ffffffffffffffffffffffffffffffffffffffff168173ffffffffffffffffffffffffffffffffffffffff16036112b8576040517f08c379a00000000000000000000000000000000000000000000000000000000081526004016112af90611e88565b60405180910390fd5b600081905060008173ffffffffffffffffffffffffffffffffffffffff1663e2bb3ccf6040518163ffffffff1660e01b8152600401600060405180830381865afa15801561130a573d6000803e3d6000fd5b505050506040513d6000823e3d601f19601f820116820180604052508101906113339190611f99565b505050505090508073ffffffffffffffffffffffffffffffffffffffff163373ffffffffffffffffffffffffffffffffffffffff16146113a8576040517f08c379a000000000000000000000000000000000000000000000000000000000815260040161139f90612373565b60405180910390fd5b6040518061010001604052808981526020018860058111156113cd576113cc6116cd565b5b81526020018781526020018681526020018581526020014281526020016000151581526020016000815250600160008a81526020019081526020016000206000820151816000015560208201518160010160006101000a81548160ff021916908360058111156114405761143f6116cd565b5b0217905550604082015181600201908161145a9190612535565b5060608201518160030190816114709190612535565b5060808201518160040190816114869190612535565b5060a0820151816005015560c08201518160060160006101000a81548160ff02191690831515021790555060e08201518160070155905050600360008860058111156114d5576114d46116cd565b5b8152602001908152602001600020889080600181540180825580915050600190039060005260206000200160009091909190915055877f7708cd11ebbb95da31470f77874d19d2ed7caaec68c1f17757fe92767e4303898860405161153a9190612607565b60405180910390a25050505050505050565b6060600060036000856005811115611567576115666116cd565b5b8152602001908152602001600020905060008180549050841061158e578180549050611590565b835b905060008167ffffffffffffffff8111156115ae576115ad611b37565b5b6040519080825280602002602001820160405280156115dc5781602001602082028036833780820191505090505b50905060005b8281101561163a578381815481106115fd576115fc612166565b5b906000526020600020015482828151811061161b5761161a612166565b5b602002602001018181525050808061163290612227565b9150506115e2565b5080935050505092915050565b6000604051905090565b600080fd5b600080fd5b6000819050919050565b61166e8161165b565b811461167957600080fd5b50565b60008135905061168b81611665565b92915050565b6000602082840312156116a7576116a6611651565b5b60006116b58482850161167c565b91505092915050565b6116c78161165b565b82525050565b7f4e487b7100000000000000000000000000000000000000000000000000000000600052602160045260246000fd5b6006811061170d5761170c6116cd565b5b50565b600081905061171e826116fc565b919050565b600061172e82611710565b9050919050565b61173e81611723565b82525050565b600081519050919050565b600082825260208201905092915050565b60005b8381101561177e578082015181840152602081019050611763565b60008484015250505050565b6000601f19601f8301169050919050565b60006117a682611744565b6117b0818561174f565b93506117c0818560208601611760565b6117c98161178a565b840191505092915050565b60008115159050919050565b6117e9816117d4565b82525050565b600061010082019050611805600083018b6116be565b611812602083018a611735565b8181036040830152611824818961179b565b90508181036060830152611838818861179b565b9050818103608083015261184c818761179b565b905061185b60a08301866116be565b61186860c08301856117e0565b61187560e08301846116be565b9998505050505050505050565b6000806040838503121561189957611898611651565b5b60006118a78582860161167c565b92505060206118b88582860161167c565b9150509250929050565b60006020820190506118d760008301846116be565b92915050565b600681106118ea57600080fd5b50565b6000813590506118fc816118dd565b92915050565b60006020828403121561191857611917611651565b5b6000611926848285016118ed565b91505092915050565b600073ffffffffffffffffffffffffffffffffffffffff82169050919050565b6000819050919050565b600061197461196f61196a8461192f565b61194f565b61192f565b9050919050565b600061198682611959565b9050919050565b60006119988261197b565b9050919050565b6119a88161198d565b82525050565b60006020820190506119c3600083018461199f565b92915050565b600060e0820190506119de600083018a611735565b81810360208301526119f0818961179b565b90508181036040830152611a04818861179b565b90508181036060830152611a18818761179b565b9050611a2760808301866116be565b611a3460a08301856117e0565b611a4160c08301846116be565b98975050505050505050565b600081519050919050565b600082825260208201905092915050565b6000819050602082019050919050565b611a828161165b565b82525050565b6000611a948383611a79565b60208301905092915050565b6000602082019050919050565b6000611ab882611a4d565b611ac28185611a58565b9350611acd83611a69565b8060005b83811015611afe578151611ae58882611a88565b9750611af083611aa0565b925050600181019050611ad1565b5085935050505092915050565b60006020820190508181036000830152611b258184611aad565b905092915050565b600080fd5b600080fd5b7f4e487b7100000000000000000000000000000000000000000000000000000000600052604160045260246000fd5b611b6f8261178a565b810181811067ffffffffffffffff82111715611b8e57611b8d611b37565b5b80604052505050565b6000611ba1611647565b9050611bad8282611b66565b919050565b600067ffffffffffffffff821115611bcd57611bcc611b37565b5b611bd68261178a565b9050602081019050919050565b82818337600083830152505050565b6000611c05611c0084611bb2565b611b97565b905082815260208101848484011115611c2157611c20611b32565b5b611c2c848285611be3565b509392505050565b600082601f830112611c4957611c48611b2d565b5b8135611c59848260208601611bf2565b91505092915050565b600080600080600060a08688031215611c7e57611c7d611651565b5b6000611c8c8882890161167c565b9550506020611c9d888289016118ed565b945050604086013567ffffffffffffffff811115611cbe57611cbd611656565b5b611cca88828901611c34565b935050606086013567ffffffffffffffff811115611ceb57611cea611656565b5b611cf788828901611c34565b925050608086013567ffffffffffffffff811115611d1857611d17611656565b5b611d2488828901611c34565b9150509295509295909350565b60008060408385031215611d4857611d47611651565b5b6000611d56858286016118ed565b9250506020611d678582860161167c565b9150509250929050565b7f4e487b7100000000000000000000000000000000000000000000000000000000600052602260045260246000fd5b60006002820490506001821680611db857607f821691505b602082108103611dcb57611dca611d71565b5b50919050565b6000611ddc8261192f565b9050919050565b611dec81611dd1565b8114611df757600080fd5b50565b600081519050611e0981611de3565b92915050565b600060208284031215611e2557611e24611651565b5b6000611e3384828501611dfa565b91505092915050565b7f4576656e7420646f6573206e6f74206578697374000000000000000000000000600082015250565b6000611e7260148361174f565b9150611e7d82611e3c565b602082019050919050565b60006020820190508181036000830152611ea181611e65565b9050919050565b7f4576656e74206d6574616461746120646f6573206e6f74206578697374000000600082015250565b6000611ede601d8361174f565b9150611ee982611ea8565b602082019050919050565b60006020820190508181036000830152611f0d81611ed1565b9050919050565b6000611f27611f2284611bb2565b611b97565b905082815260208101848484011115611f4357611f42611b32565b5b611f4e848285611760565b509392505050565b600082601f830112611f6b57611f6a611b2d565b5b8151611f7b848260208601611f14565b91505092915050565b600081519050611f9381611665565b92915050565b60008060008060008060c08789031215611fb657611fb5611651565b5b6000611fc489828a01611dfa565b965050602087015167ffffffffffffffff811115611fe557611fe4611656565b5b611ff189828a01611f56565b955050604061200289828a01611f84565b945050606061201389828a01611f84565b935050608061202489828a01611f84565b92505060a061203589828a01611f84565b9150509295509295509295565b7f4f6e6c7920746865206f7267616e697a65722063616e2066656174757265207460008201527f686973206576656e740000000000000000000000000000000000000000000000602082015250565b600061209e60298361174f565b91506120a982612042565b604082019050919050565b600060208201905081810360008301526120cd81612091565b9050919050565b7f4f6e6c7920746865206f7267616e697a65722063616e20756e6665617475726560008201527f2074686973206576656e74000000000000000000000000000000000000000000602082015250565b6000612130602b8361174f565b915061213b826120d4565b604082019050919050565b6000602082019050818103600083015261215f81612123565b9050919050565b7f4e487b7100000000000000000000000000000000000000000000000000000000600052603260045260246000fd5b7f4e487b7100000000000000000000000000000000000000000000000000000000600052601160045260246000fd5b60006121cf8261165b565b91506121da8361165b565b92508282039050818111156121f2576121f1612195565b5b92915050565b7f4e487b7100000000000000000000000000000000000000000000000000000000600052603160045260246000fd5b60006122328261165b565b91507fffffffffffffffffffffffffffffffffffffffffffffffffffffffffffffffff820361226457612263612195565b5b600182019050919050565b7f4f6e6c7920746865206f7267616e697a65722063616e2075706461746520706f60008201527f70756c6172697479000000000000000000000000000000000000000000000000602082015250565b60006122cb60288361174f565b91506122d68261226f565b604082019050919050565b600060208201905081810360008301526122fa816122be565b9050919050565b7f4f6e6c7920746865206f7267616e697a65722063616e20616464206d6574616460008201527f6174610000000000000000000000000000000000000000000000000000000000602082015250565b600061235d60238361174f565b915061236882612301565b604082019050919050565b6000602082019050818103600083015261238c81612350565b9050919050565b60008190508160005260206000209050919050565b60006020601f8301049050919050565b600082821b905092915050565b6000600883026123f57fffffffffffffffffffffffffffffffffffffffffffffffffffffffffffffffff826123b8565b6123ff86836123b8565b95508019841693508086168417925050509392505050565b600061243261242d6124288461165b565b61194f565b61165b565b9050919050565b6000819050919050565b61244c83612417565b61246061245882612439565b8484546123c5565b825550505050565b600090565b612475612468565b612480818484612443565b505050565b5b818110156124a45761249960008261246d565b600181019050612486565b5050565b601f8211156124e9576124ba81612393565b6124c3846123a8565b810160208510156124d2578190505b6124e66124de856123a8565b830182612485565b50505b505050565b600082821c905092915050565b600061250c600019846008026124ee565b1980831691505092915050565b600061252583836124fb565b9150826002028217905092915050565b61253e82611744565b67ffffffffffffffff81111561255757612556611b37565b5b6125618254611da0565b61256c8282856124a8565b600060209050601f83116001811461259f576000841561258d578287015190505b6125978582612519565b8655506125ff565b601f1984166125ad86612393565b60005b828110156125d5578489015182556001820191506020850194506020810190506125b0565b868310156125f257848901516125ee601f8916826124fb565b8355505b6001600288020188555050505b505050505050565b600060208201905061261c6000830184611735565b9291505056fea2646970667358221220ab19117dac7a720fcb10e1a6a562487c5ac8a47fc6aba88bb1facf365cd6051964736f6c63430008120033",
  "linkReferences": {},
  "deployedLinkReferences": {}
}