{
  "_format": "hh-sol-artifact-1",
  "contractName": "EventFactory",
  "sourceName": "contracts/EventFactory.sol",
  "abi": [
    {
      "inputs": [],
      "stateMutability": "nonpayable",
      "type": "constructor"
    },
    {
      "anonymous": false,
      "inputs": [
        {
          "indexed": true,
          "internalType": "uint256",
          "name": "eventId",
          "type": "uint256"
        },
        {
          "indexed": true,
          "internalType": "address",
          "name": "eventContract",
          "type": "address"
        },
        {
          "indexed": true,
          "internalType": "address",
          "name": "organizer",
          "type": "address"
        },
        {
          "indexed": false,
          "internalType": "string",
          "name": "name",
          "type": "string"
        }
      ],
      "name": "EventCreated",
      "type": "event"
    },
    {
      "inputs": [
        {
          "internalType": "string",
          "name": "name",
          "type": "string"
        },
        {
          "internalType": "uint256",
          "name": "date",
          "type": "uint256"
        },
        {
          "internalType": "uint256",
          "name": "price",
          "type": "uint256"
        },
        {
          "internalType": "uint256",
          "name": "ticketCount",
          "type": "uint256"
        }
      ],
      "name": "createEvent",
      "outputs": [
        {
          "internalType": "uint256",
          "name": "eventId",
          "type": "uint256"
        }
      ],
      "stateMutability": "nonpayable",
      "type": "function"
    },
    {
      "inputs": [
        {
          "internalType": "uint256",
          "name": "",
          "type": "uint256"
        }
      ],
      "name": "eventContracts",
      "outputs": [
        {
          "internalType": "address",
          "name": "",
          "type": "address"
        }
      ],
      "stateMutability": "view",
      "type": "function"
    },
    {
      "inputs": [
        {
          "internalType": "uint256",
          "name": "eventId",
          "type": "uint256"
        }
      ],
      "name": "getEventContract",
      "outputs": [
        {
          "internalType": "address",
          "name": "",
          "type": "address"
        }
      ],
      "stateMutability": "view",
      "type": "function"
    },
    {
      "inputs": [],
      "name": "nextEventId",
      "outputs": [
        {
          "internalType": "uint256",
          "name": "",
          "type": "uint256"
        }
      ],
      "stateMutability": "view",
      "type": "function"
    },
    {
      "inputs": [],
      "name": "owner",
      "outputs": [
        {
          "internalType": "address",
          "name": "",
          "type": "address"
        }
      ],
      "stateMutability": "view",
      "type": "function"
    }
  ],
  "bytecode": "0x608060405234801561001057600080fd5b5033600160006101000a81548173ffffffffffffffffffffffffffffffffffffffff021916908373ffffffffffffffffffffffffffffffffffffffff1602179055506132a5806100616000396000f3fe60806040523480156200001157600080fd5b50600436106200005e5760003560e01c80630374ab0b146200006357806357e27bc0146200009957806370416b3b14620000cf5780638da5cb5b14620001055780639f9d903a1462000127575b600080fd5b6200008160048036038101906200007b91906200045e565b62000149565b60405162000090919062000505565b60405180910390f35b620000b76004803603810190620000b1919062000522565b62000301565b604051620000c6919062000599565b60405180910390f35b620000ed6004803603810190620000e7919062000522565b62000334565b604051620000fc919062000599565b60405180910390f35b6200010f62000371565b6040516200011e919062000599565b60405180910390f35b6200013162000397565b60405162000140919062000505565b60405180910390f35b600042841162000190576040517f08c379a0000000000000000000000000000000000000000000000000000000008152600401620001879062000617565b60405180910390fd5b60008211620001d6576040517f08c379a0000000000000000000000000000000000000000000000000000000008152600401620001cd90620006af565b60405180910390fd5b6000338787878787604051620001ec906200039d565b620001fd9695949392919062000724565b604051809103906000f0801580156200021a573d6000803e3d6000fd5b5090506000549150806002600084815260200190815260200160002060006101000a81548173ffffffffffffffffffffffffffffffffffffffff021916908373ffffffffffffffffffffffffffffffffffffffff1602179055506000808154809291906200028890620007b9565b91905055503373ffffffffffffffffffffffffffffffffffffffff168173ffffffffffffffffffffffffffffffffffffffff16837fccc9fe4fffbb68927d770c869008c448f3989ca3d06ae1cad07b8e0773e74e488a8a604051620002ef92919062000806565b60405180910390a45095945050505050565b60026020528060005260406000206000915054906101000a900473ffffffffffffffffffffffffffffffffffffffff1681565b60006002600083815260200190815260200160002060009054906101000a900473ffffffffffffffffffffffffffffffffffffffff169050919050565b600160009054906101000a900473ffffffffffffffffffffffffffffffffffffffff1681565b60005481565b612a43806200082d83390190565b600080fd5b600080fd5b600080fd5b600080fd5b600080fd5b60008083601f840112620003dd57620003dc620003b5565b5b8235905067ffffffffffffffff811115620003fd57620003fc620003ba565b5b6020830191508360018202830111156200041c576200041b620003bf565b5b9250929050565b6000819050919050565b620004388162000423565b81146200044457600080fd5b50565b60008135905062000458816200042d565b92915050565b6000806000806000608086880312156200047d576200047c620003ab565b5b600086013567ffffffffffffffff8111156200049e576200049d620003b0565b5b620004ac88828901620003c4565b95509550506020620004c18882890162000447565b9350506040620004d48882890162000447565b9250506060620004e78882890162000447565b9150509295509295909350565b620004ff8162000423565b82525050565b60006020820190506200051c6000830184620004f4565b92915050565b6000602082840312156200053b576200053a620003ab565b5b60006200054b8482850162000447565b91505092915050565b600073ffffffffffffffffffffffffffffffffffffffff82169050919050565b6000620005818262000554565b9050919050565b620005938162000574565b82525050565b6000602082019050620005b0600083018462000588565b92915050565b600082825260208201905092915050565b7f4576656e742064617465206d75737420626520696e2074686520667574757265600082015250565b6000620005ff602083620005b6565b91506200060c82620005c7565b602082019050919050565b600060208201905081810360008301526200063281620005f0565b9050919050565b7f5469636b657420636f756e74206d75737420626520677265617465722074686160008201527f6e20300000000000000000000000000000000000000000000000000000000000602082015250565b600062000697602383620005b6565b9150620006a48262000639565b604082019050919050565b60006020820190508181036000830152620006ca8162000688565b9050919050565b82818337600083830152505050565b6000601f19601f8301169050919050565b6000620006ff8385620005b6565b93506200070e838584620006d1565b6200071983620006e0565b840190509392505050565b600060a0820190506200073b600083018962000588565b818103602083015262000750818789620006f1565b9050620007616040830186620004f4565b620007706060830185620004f4565b6200077f6080830184620004f4565b979650505050505050565b7f4e487b7100000000000000000000000000000000000000000000000000000000600052601160045260246000fd5b6000620007c68262000423565b91507fffffffffffffffffffffffffffffffffffffffffffffffffffffffffffffffff8203620007fb57620007fa6200078a565b5b600182019050919050565b6000602082019050818103600083015262000823818486620006f1565b9050939250505056fe60806040523480156200001157600080fd5b5060405162002a4338038062002a438339818101604052810190620000379190620003c5565b846000806101000a81548173ffffffffffffffffffffffffffffffffffffffff021916908373ffffffffffffffffffffffffffffffffffffffff1602179055508360019081620000889190620006ad565b508260028190555081600381905550806004819055508060058190555030604051620000b49062000184565b620000c09190620007a5565b604051809103906000f080158015620000dd573d6000803e3d6000fd5b50600660006101000a81548173ffffffffffffffffffffffffffffffffffffffff021916908373ffffffffffffffffffffffffffffffffffffffff1602179055507facf8c07bf298b989938d95051dbd4353c8a83c374927deda7263c1055c650d3c600660009054906101000a900473ffffffffffffffffffffffffffffffffffffffff16604051620001719190620007a5565b60405180910390a15050505050620007c2565b611605806200143e83390190565b6000604051905090565b600080fd5b600080fd5b600073ffffffffffffffffffffffffffffffffffffffff82169050919050565b6000620001d382620001a6565b9050919050565b620001e581620001c6565b8114620001f157600080fd5b50565b6000815190506200020581620001da565b92915050565b600080fd5b600080fd5b6000601f19601f8301169050919050565b7f4e487b7100000000000000000000000000000000000000000000000000000000600052604160045260246000fd5b620002608262000215565b810181811067ffffffffffffffff8211171562000282576200028162000226565b5b80604052505050565b60006200029762000192565b9050620002a5828262000255565b919050565b600067ffffffffffffffff821115620002c857620002c762000226565b5b620002d38262000215565b9050602081019050919050565b60005b8381101562000300578082015181840152602081019050620002e3565b60008484015250505050565b6000620003236200031d84620002aa565b6200028b565b90508281526020810184848401111562000342576200034162000210565b5b6200034f848285620002e0565b509392505050565b600082601f8301126200036f576200036e6200020b565b5b8151620003818482602086016200030c565b91505092915050565b6000819050919050565b6200039f816200038a565b8114620003ab57600080fd5b50565b600081519050620003bf8162000394565b92915050565b600080600080600060a08688031215620003e457620003e36200019c565b5b6000620003f488828901620001f4565b955050602086015167ffffffffffffffff811115620004185762000417620001a1565b5b620004268882890162000357565b94505060406200043988828901620003ae565b93505060606200044c88828901620003ae565b92505060806200045f88828901620003ae565b9150509295509295909350565b600081519050919050565b7f4e487b7100000000000000000000000000000000000000000000000000000000600052602260045260246000fd5b60006002820490506001821680620004bf57607f821691505b602082108103620004d557620004d462000477565b5b50919050565b60008190508160005260206000209050919050565b60006020601f8301049050919050565b600082821b905092915050565b6000600883026200053f7fffffffffffffffffffffffffffffffffffffffffffffffffffffffffffffffff8262000500565b6200054b868362000500565b95508019841693508086168417925050509392505050565b6000819050919050565b60006200058e6200058862000582846200038a565b62000563565b6200038a565b9050919050565b6000819050919050565b620005aa836200056d565b620005c2620005b98262000595565b8484546200050d565b825550505050565b600090565b620005d9620005ca565b620005e68184846200059f565b505050565b5b818110156200060e5762000602600082620005cf565b600181019050620005ec565b5050565b601f8211156200065d576200062781620004db565b6200063284620004f0565b8101602085101562000642578190505b6200065a6200065185620004f0565b830182620005eb565b50505b505050565b600082821c905092915050565b6000620006826000198460080262000662565b1980831691505092915050565b60006200069d83836200066f565b9150826002028217905092915050565b620006b8826200046c565b67ffffffffffffffff811115620006d457620006d362000226565b5b620006e08254620004a6565b620006ed82828562000612565b600060209050601f83116001811462000725576000841562000710578287015190505b6200071c85826200068f565b8655506200078c565b601f1984166200073586620004db565b60005b828110156200075f5784890151825560018201915060208501945060208101905062000738565b868310156200077f57848901516200077b601f8916826200066f565b8355505b6001600288020188555050505b505050505050565b6200079f81620001c6565b82525050565b6000602082019050620007bc600083018462000794565b92915050565b610c6c80620007d26000396000f3fe60806040526004361061008a5760003560e01c80639fa05c16116100595780639fa05c16146102a1578063a035b1fe146102de578063cfbd900f14610309578063e2bb3ccf14610334578063f96b61cf14610364576101f0565b806306fdde03146101f5578063135ac33b14610220578063323046b11461024b5780636120326514610276576101f0565b366101f0577f6ef95f06320e7a25a04a175ca677b7052bdd97131872c2192525a629f51be77033346040516100c09291906106ab565b60405180910390a160008060009054906101000a900473ffffffffffffffffffffffffffffffffffffffff1673ffffffffffffffffffffffffffffffffffffffff163460405161010f90610705565b60006040518083038185875af1925050503d806000811461014c576040519150601f19603f3d011682016040523d82523d6000602084013e610151565b606091505b5050905080610195576040517f08c379a000000000000000000000000000000000000000000000000000000000815260040161018c9061079d565b60405180910390fd5b7f7e99594d80a854f08e1995929bca50d03000411d5987bfea7071cc8d125762c460008054906101000a900473ffffffffffffffffffffffffffffffffffffffff16346040516101e692919061081c565b60405180910390a1005b600080fd5b34801561020157600080fd5b5061020a61038f565b60405161021791906108c4565b60405180910390f35b34801561022c57600080fd5b5061023561041d565b60405161024291906108e6565b60405180910390f35b34801561025757600080fd5b50610260610423565b60405161026d91906108e6565b60405180910390f35b34801561028257600080fd5b5061028b610429565b6040516102989190610922565b60405180910390f35b3480156102ad57600080fd5b506102c860048036038101906102c3919061096e565b61044d565b6040516102d591906109b6565b60405180910390f35b3480156102ea57600080fd5b506102f3610546565b60405161030091906108e6565b60405180910390f35b34801561031557600080fd5b5061031e61054c565b60405161032b91906108e6565b60405180910390f35b34801561034057600080fd5b50610349610552565b60405161035b969594939291906109d1565b60405180910390f35b34801561037057600080fd5b5061037961062b565b6040516103869190610a5a565b60405180910390f35b6001805461039c90610aa4565b80601f01602080910402602001604051908101604052809291908181526020018280546103c890610aa4565b80156104155780601f106103ea57610100808354040283529160200191610415565b820191906000526020600020905b8154815290600101906020018083116103f857829003601f168201915b505050505081565b60055481565b60025481565b60008054906101000a900473ffffffffffffffffffffffffffffffffffffffff1681565b6000600660009054906101000a900473ffffffffffffffffffffffffffffffffffffffff1673ffffffffffffffffffffffffffffffffffffffff163373ffffffffffffffffffffffffffffffffffffffff16146104df576040517f08c379a00000000000000000000000000000000000000000000000000000000081526004016104d690610b47565b60405180910390fd5b816005541015610524576040517f08c379a000000000000000000000000000000000000000000000000000000000815260040161051b90610bb3565b60405180910390fd5b81600560008282546105369190610c02565b9250508190555060019050919050565b60035481565b60045481565b6000606060008060008060008054906101000a900473ffffffffffffffffffffffffffffffffffffffff16600160025460035460045460055484805461059790610aa4565b80601f01602080910402602001604051908101604052809291908181526020018280546105c390610aa4565b80156106105780601f106105e557610100808354040283529160200191610610565b820191906000526020600020905b8154815290600101906020018083116105f357829003601f168201915b50505050509450955095509550955095509550909192939495565b600660009054906101000a900473ffffffffffffffffffffffffffffffffffffffff1681565b600073ffffffffffffffffffffffffffffffffffffffff82169050919050565b600061067c82610651565b9050919050565b61068c81610671565b82525050565b6000819050919050565b6106a581610692565b82525050565b60006040820190506106c06000830185610683565b6106cd602083018461069c565b9392505050565b600081905092915050565b50565b60006106ef6000836106d4565b91506106fa826106df565b600082019050919050565b6000610710826106e2565b9150819050919050565b600082825260208201905092915050565b7f4661696c656420746f20666f7277617264207061796d656e7420746f206f726760008201527f616e697a65720000000000000000000000000000000000000000000000000000602082015250565b600061078760268361071a565b91506107928261072b565b604082019050919050565b600060208201905081810360008301526107b68161077a565b9050919050565b6000819050919050565b60006107e26107dd6107d884610651565b6107bd565b610651565b9050919050565b60006107f4826107c7565b9050919050565b6000610806826107e9565b9050919050565b610816816107fb565b82525050565b6000604082019050610831600083018561080d565b61083e602083018461069c565b9392505050565b600081519050919050565b60005b8381101561086e578082015181840152602081019050610853565b60008484015250505050565b6000601f19601f8301169050919050565b600061089682610845565b6108a0818561071a565b93506108b0818560208601610850565b6108b98161087a565b840191505092915050565b600060208201905081810360008301526108de818461088b565b905092915050565b60006020820190506108fb600083018461069c565b92915050565b600061090c82610651565b9050919050565b61091c81610901565b82525050565b60006020820190506109376000830184610913565b92915050565b600080fd5b61094b81610692565b811461095657600080fd5b50565b60008135905061096881610942565b92915050565b6000602082840312156109845761098361093d565b5b600061099284828501610959565b91505092915050565b60008115159050919050565b6109b08161099b565b82525050565b60006020820190506109cb60008301846109a7565b92915050565b600060c0820190506109e66000830189610683565b81810360208301526109f8818861088b565b9050610a07604083018761069c565b610a14606083018661069c565b610a21608083018561069c565b610a2e60a083018461069c565b979650505050505050565b6000610a44826107e9565b9050919050565b610a5481610a39565b82525050565b6000602082019050610a6f6000830184610a4b565b92915050565b7f4e487b7100000000000000000000000000000000000000000000000000000000600052602260045260246000fd5b60006002820490506001821680610abc57607f821691505b602082108103610acf57610ace610a75565b5b50919050565b7f4f6e6c79207469636b6574206d616e616765722063616e20757064617465207460008201527f69636b657420636f756e74000000000000000000000000000000000000000000602082015250565b6000610b31602b8361071a565b9150610b3c82610ad5565b604082019050919050565b60006020820190508181036000830152610b6081610b24565b9050919050565b7f4e6f7420656e6f756768207469636b65747320617661696c61626c6500000000600082015250565b6000610b9d601c8361071a565b9150610ba882610b67565b602082019050919050565b60006020820190508181036000830152610bcc81610b90565b9050919050565b7f4e487b7100000000000000000000000000000000000000000000000000000000600052601160045260246000fd5b6000610c0d82610692565b9150610c1883610692565b9250828203905081811115610c3057610c2f610bd3565b5b9291505056fea2646970667358221220424566166414889a6cbd32cf3fdccc38a1d03c73ce4b15e627d188923115e6ab64736f6c6343000812003360806040523480156200001157600080fd5b5060405162001605380380620016058339818101604052810190620000379190620000e8565b806000806101000a81548173ffffffffffffffffffffffffffffffffffffffff021916908373ffffffffffffffffffffffffffffffffffffffff160217905550506200011a565b600080fd5b600073ffffffffffffffffffffffffffffffffffffffff82169050919050565b6000620000b08262000083565b9050919050565b620000c281620000a3565b8114620000ce57600080fd5b50565b600081519050620000e281620000b7565b92915050565b6000602082840312156200010157620001006200007e565b5b60006200011184828501620000d1565b91505092915050565b6114db806200012a6000396000f3fe60806040526004361061004a5760003560e01c806352473ec61461004f578063679ebf1a1461007a57806367dd74ca146100965780636dcbf2a3146100b2578063e5da378f146100ef575b600080fd5b34801561005b57600080fd5b5061006461012c565b6040516100719190610aa2565b60405180910390f35b610094600480360381019061008f9190610b45565b610150565b005b6100b060048036038101906100ab9190610b85565b61063a565b005b3480156100be57600080fd5b506100d960048036038101906100d49190610bb2565b6109c2565b6040516100e69190610bee565b60405180910390f35b3480156100fb57600080fd5b5061011660048036038101906101119190610bb2565b6109da565b6040516101239190610bee565b60405180910390f35b60008054906101000a900473ffffffffffffffffffffffffffffffffffffffff1681565b60008060008054906101000a900473ffffffffffffffffffffffffffffffffffffffff1673ffffffffffffffffffffffffffffffffffffffff1663e2bb3ccf6040518163ffffffff1660e01b8152600401600060405180830381865afa1580156101be573d6000803e3d6000fd5b505050506040513d6000823e3d601f19601f820116820180604052508101906101e79190610d94565b5050935093505050814210610231576040517f08c379a000000000000000000000000000000000000000000000000000000000815260040161022890610e9a565b60405180910390fd5b600073ffffffffffffffffffffffffffffffffffffffff163373ffffffffffffffffffffffffffffffffffffffff16036102a0576040517f08c379a000000000000000000000000000000000000000000000000000000000815260040161029790610f06565b60405180910390fd5b600073ffffffffffffffffffffffffffffffffffffffff168373ffffffffffffffffffffffffffffffffffffffff160361030f576040517f08c379a000000000000000000000000000000000000000000000000000000000815260040161030690610f72565b60405180910390fd5b8273ffffffffffffffffffffffffffffffffffffffff163373ffffffffffffffffffffffffffffffffffffffff160361037d576040517f08c379a000000000000000000000000000000000000000000000000000000000815260040161037490611004565b60405180910390fd5b83600160003373ffffffffffffffffffffffffffffffffffffffff1673ffffffffffffffffffffffffffffffffffffffff1681526020019081526020016000205410156103ff576040517f08c379a00000000000000000000000000000000000000000000000000000000081526004016103f690611070565b60405180910390fd5b6000848261040d91906110bf565b905080341015610452576040517f08c379a000000000000000000000000000000000000000000000000000000000815260040161044990611173565b60405180910390fd5b60008060009054906101000a900473ffffffffffffffffffffffffffffffffffffffff1673ffffffffffffffffffffffffffffffffffffffff1682604051610499906111c4565b60006040518083038185875af1925050503d80600081146104d6576040519150601f19603f3d011682016040523d82523d6000602084013e6104db565b606091505b505090508061051f576040517f08c379a00000000000000000000000000000000000000000000000000000000081526004016105169061124b565b60405180910390fd5b85600160003373ffffffffffffffffffffffffffffffffffffffff1673ffffffffffffffffffffffffffffffffffffffff168152602001908152602001600020600082825461056e919061126b565b9250508190555085600160008773ffffffffffffffffffffffffffffffffffffffff1673ffffffffffffffffffffffffffffffffffffffff16815260200190815260200160002060008282546105c4919061129f565b925050819055508473ffffffffffffffffffffffffffffffffffffffff163373ffffffffffffffffffffffffffffffffffffffff167ff7e48eef07ea2908eb51d82309e92718d1dcc055b2be4e18f1a0dbd056348e49883460405161062a9291906112d3565b60405180910390a3505050505050565b60008060008054906101000a900473ffffffffffffffffffffffffffffffffffffffff1673ffffffffffffffffffffffffffffffffffffffff1663e2bb3ccf6040518163ffffffff1660e01b8152600401600060405180830381865afa1580156106a8573d6000803e3d6000fd5b505050506040513d6000823e3d601f19601f820116820180604052508101906106d19190610d94565b505093509350505081421061071b576040517f08c379a000000000000000000000000000000000000000000000000000000000815260040161071290610e9a565b60405180910390fd5b828161072791906110bf565b341015610769576040517f08c379a000000000000000000000000000000000000000000000000000000000815260040161076090611348565b60405180910390fd5b60008060009054906101000a900473ffffffffffffffffffffffffffffffffffffffff1673ffffffffffffffffffffffffffffffffffffffff16639fa05c16856040518263ffffffff1660e01b81526004016107c59190610bee565b6020604051808303816000875af11580156107e4573d6000803e3d6000fd5b505050506040513d601f19601f8201168201806040525081019061080891906113a0565b90508061084a576040517f08c379a000000000000000000000000000000000000000000000000000000000815260040161084190611419565b60405180910390fd5b83600160003373ffffffffffffffffffffffffffffffffffffffff1673ffffffffffffffffffffffffffffffffffffffff1681526020019081526020016000206000828254610899919061129f565b9250508190555060008060009054906101000a900473ffffffffffffffffffffffffffffffffffffffff1673ffffffffffffffffffffffffffffffffffffffff16346040516108e7906111c4565b60006040518083038185875af1925050503d8060008114610924576040519150601f19603f3d011682016040523d82523d6000602084013e610929565b606091505b505090508061096d576040517f08c379a000000000000000000000000000000000000000000000000000000000815260040161096490611485565b60405180910390fd5b3373ffffffffffffffffffffffffffffffffffffffff167fe11731cb4f1eb3ec3dd09bdc96809bb07365f4c881cda3192b397a4bc0b6da40866040516109b39190610bee565b60405180910390a25050505050565b60016020528060005260406000206000915090505481565b6000600160008373ffffffffffffffffffffffffffffffffffffffff1673ffffffffffffffffffffffffffffffffffffffff168152602001908152602001600020549050919050565b600073ffffffffffffffffffffffffffffffffffffffff82169050919050565b6000819050919050565b6000610a68610a63610a5e84610a23565b610a43565b610a23565b9050919050565b6000610a7a82610a4d565b9050919050565b6000610a8c82610a6f565b9050919050565b610a9c81610a81565b82525050565b6000602082019050610ab76000830184610a93565b92915050565b6000604051905090565b600080fd5b600080fd5b6000819050919050565b610ae481610ad1565b8114610aef57600080fd5b50565b600081359050610b0181610adb565b92915050565b6000610b1282610a23565b9050919050565b610b2281610b07565b8114610b2d57600080fd5b50565b600081359050610b3f81610b19565b92915050565b60008060408385031215610b5c57610b5b610ac7565b5b6000610b6a85828601610af2565b9250506020610b7b85828601610b30565b9150509250929050565b600060208284031215610b9b57610b9a610ac7565b5b6000610ba984828501610af2565b91505092915050565b600060208284031215610bc857610bc7610ac7565b5b6000610bd684828501610b30565b91505092915050565b610be881610ad1565b82525050565b6000602082019050610c036000830184610bdf565b92915050565b600081519050610c1881610b19565b92915050565b600080fd5b600080fd5b6000601f19601f8301169050919050565b7f4e487b7100000000000000000000000000000000000000000000000000000000600052604160045260246000fd5b610c7182610c28565b810181811067ffffffffffffffff82111715610c9057610c8f610c39565b5b80604052505050565b6000610ca3610abd565b9050610caf8282610c68565b919050565b600067ffffffffffffffff821115610ccf57610cce610c39565b5b610cd882610c28565b9050602081019050919050565b60005b83811015610d03578082015181840152602081019050610ce8565b60008484015250505050565b6000610d22610d1d84610cb4565b610c99565b905082815260208101848484011115610d3e57610d3d610c23565b5b610d49848285610ce5565b509392505050565b600082601f830112610d6657610d65610c1e565b5b8151610d76848260208601610d0f565b91505092915050565b600081519050610d8e81610adb565b92915050565b60008060008060008060c08789031215610db157610db0610ac7565b5b6000610dbf89828a01610c09565b965050602087015167ffffffffffffffff811115610de057610ddf610acc565b5b610dec89828a01610d51565b9550506040610dfd89828a01610d7f565b9450506060610e0e89828a01610d7f565b9350506080610e1f89828a01610d7f565b92505060a0610e3089828a01610d7f565b9150509295509295509295565b600082825260208201905092915050565b7f4576656e742068617320616c7265616479206f63637572726564000000000000600082015250565b6000610e84601a83610e3d565b9150610e8f82610e4e565b602082019050919050565b60006020820190508181036000830152610eb381610e77565b9050919050565b7f496e76616c69642073656e646572206164647265737300000000000000000000600082015250565b6000610ef0601683610e3d565b9150610efb82610eba565b602082019050919050565b60006020820190508181036000830152610f1f81610ee3565b9050919050565b7f43616e6e6f74207472616e7366657220746f207a65726f206164647265737300600082015250565b6000610f5c601f83610e3d565b9150610f6782610f26565b602082019050919050565b60006020820190508181036000830152610f8b81610f4f565b9050919050565b7f53656e64657220616e6420726563697069656e742063616e6e6f74206265207460008201527f68652073616d6500000000000000000000000000000000000000000000000000602082015250565b6000610fee602783610e3d565b9150610ff982610f92565b604082019050919050565b6000602082019050818103600083015261101d81610fe1565b9050919050565b7f496e73756666696369656e74207469636b657473206f776e6564000000000000600082015250565b600061105a601a83610e3d565b915061106582611024565b602082019050919050565b600060208201905081810360008301526110898161104d565b9050919050565b7f4e487b7100000000000000000000000000000000000000000000000000000000600052601160045260246000fd5b60006110ca82610ad1565b91506110d583610ad1565b92508282026110e381610ad1565b915082820484148315176110fa576110f9611090565b5b5092915050565b7f496e73756666696369656e74207061796d656e742066726f6d2072656369706960008201527f656e740000000000000000000000000000000000000000000000000000000000602082015250565b600061115d602383610e3d565b915061116882611101565b604082019050919050565b6000602082019050818103600083015261118c81611150565b9050919050565b600081905092915050565b50565b60006111ae600083611193565b91506111b98261119e565b600082019050919050565b60006111cf826111a1565b9150819050919050565b7f4661696c656420746f207472616e73666572207061796d656e7420746f20657660008201527f656e7420636f6e74726163740000000000000000000000000000000000000000602082015250565b6000611235602c83610e3d565b9150611240826111d9565b604082019050919050565b6000602082019050818103600083015261126481611228565b9050919050565b600061127682610ad1565b915061128183610ad1565b925082820390508181111561129957611298611090565b5b92915050565b60006112aa82610ad1565b91506112b583610ad1565b92508282019050808211156112cd576112cc611090565b5b92915050565b60006040820190506112e86000830185610bdf565b6112f56020830184610bdf565b9392505050565b7f496e73756666696369656e742045746865722073656e74000000000000000000600082015250565b6000611332601783610e3d565b915061133d826112fc565b602082019050919050565b6000602082019050818103600083015261136181611325565b9050919050565b60008115159050919050565b61137d81611368565b811461138857600080fd5b50565b60008151905061139a81611374565b92915050565b6000602082840312156113b6576113b5610ac7565b5b60006113c48482850161138b565b91505092915050565b7f4661696c656420746f20757064617465207469636b657420636f756e74000000600082015250565b6000611403601d83610e3d565b915061140e826113cd565b602082019050919050565b60006020820190508181036000830152611432816113f6565b9050919050565b7f4661696c656420746f2073656e64204574686572000000000000000000000000600082015250565b600061146f601483610e3d565b915061147a82611439565b602082019050919050565b6000602082019050818103600083015261149e81611462565b905091905056fea2646970667358221220e5e6eb8f116a07b6e5494fd24ff3c30d068c584af2324a0a3243bd3b236b4f4464736f6c63430008120033a2646970667358221220d153a366442157e96b2c071141c84bdf8ab3afb9e8477c2fe64e557710e5248b64736f6c63430008120033",
  "linkReferences": {},
  "deployedLinkReferences": {}
}