{
  "_format": "hh-sol-artifact-1",
  "contractName": "TicketManager",
  "sourceName": "contracts/TicketManager.sol",
  "abi": [
    {
      "inputs": [
        {
          "internalType": "address",
          "name": "_eventCore",
          "type": "address"
        }
      ],
      "stateMutability": "nonpayable",
      "type": "constructor"
    },
    {
      "anonymous": false,
      "inputs": [
        {
          "indexed": true,
          "internalType": "address",
          "name": "buyer",
          "type": "address"
        },
        {
          "indexed": false,
          "internalType": "uint256",
          "name": "quantity",
          "type": "uint256"
        }
      ],
      "name": "TicketsPurchased",
      "type": "event"
    },
    {
      "anonymous": false,
      "inputs": [
        {
          "indexed": true,
          "internalType": "address",
          "name": "from",
          "type": "address"
        },
        {
          "indexed": true,
          "internalType": "address",
          "name": "to",
          "type": "address"
        },
        {
          "indexed": false,
          "internalType": "uint256",
          "name": "quantity",
          "type": "uint256"
        },
        {
          "indexed": false,
          "internalType": "uint256",
          "name": "amount",
          "type": "uint256"
        }
      ],
      "name": "TicketsTransferred",
      "type": "event"
    },
    {
      "inputs": [
        {
          "internalType": "uint256",
          "name": "quantity",
          "type": "uint256"
        }
      ],
      "name": "buyTicket",
      "outputs": [],
      "stateMutability": "payable",
      "type": "function"
    },
    {
      "inputs": [],
      "name": "eventCore",
      "outputs": [
        {
          "internalType": "contract EventCore",
          "name": "",
          "type": "address"
        }
      ],
      "stateMutability": "view",
      "type": "function"
    },
    {
      "inputs": [
        {
          "internalType": "address",
          "name": "owner",
          "type": "address"
        }
      ],
      "name": "getTicketBalance",
      "outputs": [
        {
          "internalType": "uint256",
          "name": "",
          "type": "uint256"
        }
      ],
      "stateMutability": "view",
      "type": "function"
    },
    {
      "inputs": [
        {
          "internalType": "address",
          "name": "",
          "type": "address"
        }
      ],
      "name": "tickets",
      "outputs": [
        {
          "internalType": "uint256",
          "name": "",
          "type": "uint256"
        }
      ],
      "stateMutability": "view",
      "type": "function"
    },
    {
      "inputs": [
        {
          "internalType": "uint256",
          "name": "quantity",
          "type": "uint256"
        },
        {
          "internalType": "address",
          "name": "to",
          "type": "address"
        }
      ],
      "name": "transferTicket",
      "outputs": [],
      "stateMutability": "payable",
      "type": "function"
    }
  ],
  "bytecode": "0x60806040523480156200001157600080fd5b5060405162001605380380620016058339818101604052810190620000379190620000e8565b806000806101000a81548173ffffffffffffffffffffffffffffffffffffffff021916908373ffffffffffffffffffffffffffffffffffffffff160217905550506200011a565b600080fd5b600073ffffffffffffffffffffffffffffffffffffffff82169050919050565b6000620000b08262000083565b9050919050565b620000c281620000a3565b8114620000ce57600080fd5b50565b600081519050620000e281620000b7565b92915050565b6000602082840312156200010157620001006200007e565b5b60006200011184828501620000d1565b91505092915050565b6114db806200012a6000396000f3fe60806040526004361061004a5760003560e01c806352473ec61461004f578063679ebf1a1461007a57806367dd74ca146100965780636dcbf2a3146100b2578063e5da378f146100ef575b600080fd5b34801561005b57600080fd5b5061006461012c565b6040516100719190610aa2565b60405180910390f35b610094600480360381019061008f9190610b45565b610150565b005b6100b060048036038101906100ab9190610b85565b61063a565b005b3480156100be57600080fd5b506100d960048036038101906100d49190610bb2565b6109c2565b6040516100e69190610bee565b60405180910390f35b3480156100fb57600080fd5b5061011660048036038101906101119190610bb2565b6109da565b6040516101239190610bee565b60405180910390f35b60008054906101000a900473ffffffffffffffffffffffffffffffffffffffff1681565b60008060008054906101000a900473ffffffffffffffffffffffffffffffffffffffff1673ffffffffffffffffffffffffffffffffffffffff1663e2bb3ccf6040518163ffffffff1660e01b8152600401600060405180830381865afa1580156101be573d6000803e3d6000fd5b505050506040513d6000823e3d601f19601f820116820180604052508101906101e79190610d94565b5050935093505050814210610231576040517f08c379a000000000000000000000000000000000000000000000000000000000815260040161022890610e9a565b60405180910390fd5b600073ffffffffffffffffffffffffffffffffffffffff163373ffffffffffffffffffffffffffffffffffffffff16036102a0576040517f08c379a000000000000000000000000000000000000000000000000000000000815260040161029790610f06565b60405180910390fd5b600073ffffffffffffffffffffffffffffffffffffffff168373ffffffffffffffffffffffffffffffffffffffff160361030f576040517f08c379a000000000000000000000000000000000000000000000000000000000815260040161030690610f72565b60405180910390fd5b8273ffffffffffffffffffffffffffffffffffffffff163373ffffffffffffffffffffffffffffffffffffffff160361037d576040517f08c379a000000000000000000000000000000000000000000000000000000000815260040161037490611004565b60405180910390fd5b83600160003373ffffffffffffffffffffffffffffffffffffffff1673ffffffffffffffffffffffffffffffffffffffff1681526020019081526020016000205410156103ff576040517f08c379a00000000000000000000000000000000000000000000000000000000081526004016103f690611070565b60405180910390fd5b6000848261040d91906110bf565b905080341015610452576040517f08c379a000000000000000000000000000000000000000000000000000000000815260040161044990611173565b60405180910390fd5b60008060009054906101000a900473ffffffffffffffffffffffffffffffffffffffff1673ffffffffffffffffffffffffffffffffffffffff1682604051610499906111c4565b60006040518083038185875af1925050503d80600081146104d6576040519150601f19603f3d011682016040523d82523d6000602084013e6104db565b606091505b505090508061051f576040517f08c379a00000000000000000000000000000000000000000000000000000000081526004016105169061124b565b60405180910390fd5b85600160003373ffffffffffffffffffffffffffffffffffffffff1673ffffffffffffffffffffffffffffffffffffffff168152602001908152602001600020600082825461056e919061126b565b9250508190555085600160008773ffffffffffffffffffffffffffffffffffffffff1673ffffffffffffffffffffffffffffffffffffffff16815260200190815260200160002060008282546105c4919061129f565b925050819055508473ffffffffffffffffffffffffffffffffffffffff163373ffffffffffffffffffffffffffffffffffffffff167ff7e48eef07ea2908eb51d82309e92718d1dcc055b2be4e18f1a0dbd056348e49883460405161062a9291906112d3565b60405180910390a3505050505050565b60008060008054906101000a900473ffffffffffffffffffffffffffffffffffffffff1673ffffffffffffffffffffffffffffffffffffffff1663e2bb3ccf6040518163ffffffff1660e01b8152600401600060405180830381865afa1580156106a8573d6000803e3d6000fd5b505050506040513d6000823e3d601f19601f820116820180604052508101906106d19190610d94565b505093509350505081421061071b576040517f08c379a000000000000000000000000000000000000000000000000000000000815260040161071290610e9a565b60405180910390fd5b828161072791906110bf565b341015610769576040517f08c379a000000000000000000000000000000000000000000000000000000000815260040161076090611348565b60405180910390fd5b60008060009054906101000a900473ffffffffffffffffffffffffffffffffffffffff1673ffffffffffffffffffffffffffffffffffffffff16639fa05c16856040518263ffffffff1660e01b81526004016107c59190610bee565b6020604051808303816000875af11580156107e4573d6000803e3d6000fd5b505050506040513d601f19601f8201168201806040525081019061080891906113a0565b90508061084a576040517f08c379a000000000000000000000000000000000000000000000000000000000815260040161084190611419565b60405180910390fd5b83600160003373ffffffffffffffffffffffffffffffffffffffff1673ffffffffffffffffffffffffffffffffffffffff1681526020019081526020016000206000828254610899919061129f565b9250508190555060008060009054906101000a900473ffffffffffffffffffffffffffffffffffffffff1673ffffffffffffffffffffffffffffffffffffffff16346040516108e7906111c4565b60006040518083038185875af1925050503d8060008114610924576040519150601f19603f3d011682016040523d82523d6000602084013e610929565b606091505b505090508061096d576040517f08c379a000000000000000000000000000000000000000000000000000000000815260040161096490611485565b60405180910390fd5b3373ffffffffffffffffffffffffffffffffffffffff167fe11731cb4f1eb3ec3dd09bdc96809bb07365f4c881cda3192b397a4bc0b6da40866040516109b39190610bee565b60405180910390a25050505050565b60016020528060005260406000206000915090505481565b6000600160008373ffffffffffffffffffffffffffffffffffffffff1673ffffffffffffffffffffffffffffffffffffffff168152602001908152602001600020549050919050565b600073ffffffffffffffffffffffffffffffffffffffff82169050919050565b6000819050919050565b6000610a68610a63610a5e84610a23565b610a43565b610a23565b9050919050565b6000610a7a82610a4d565b9050919050565b6000610a8c82610a6f565b9050919050565b610a9c81610a81565b82525050565b6000602082019050610ab76000830184610a93565b92915050565b6000604051905090565b600080fd5b600080fd5b6000819050919050565b610ae481610ad1565b8114610aef57600080fd5b50565b600081359050610b0181610adb565b92915050565b6000610b1282610a23565b9050919050565b610b2281610b07565b8114610b2d57600080fd5b50565b600081359050610b3f81610b19565b92915050565b60008060408385031215610b5c57610b5b610ac7565b5b6000610b6a85828601610af2565b9250506020610b7b85828601610b30565b9150509250929050565b600060208284031215610b9b57610b9a610ac7565b5b6000610ba984828501610af2565b91505092915050565b600060208284031215610bc857610bc7610ac7565b5b6000610bd684828501610b30565b91505092915050565b610be881610ad1565b82525050565b6000602082019050610c036000830184610bdf565b92915050565b600081519050610c1881610b19565b92915050565b600080fd5b600080fd5b6000601f19601f8301169050919050565b7f4e487b7100000000000000000000000000000000000000000000000000000000600052604160045260246000fd5b610c7182610c28565b810181811067ffffffffffffffff82111715610c9057610c8f610c39565b5b80604052505050565b6000610ca3610abd565b9050610caf8282610c68565b919050565b600067ffffffffffffffff821115610ccf57610cce610c39565b5b610cd882610c28565b9050602081019050919050565b60005b83811015610d03578082015181840152602081019050610ce8565b60008484015250505050565b6000610d22610d1d84610cb4565b610c99565b905082815260208101848484011115610d3e57610d3d610c23565b5b610d49848285610ce5565b509392505050565b600082601f830112610d6657610d65610c1e565b5b8151610d76848260208601610d0f565b91505092915050565b600081519050610d8e81610adb565b92915050565b60008060008060008060c08789031215610db157610db0610ac7565b5b6000610dbf89828a01610c09565b965050602087015167ffffffffffffffff811115610de057610ddf610acc565b5b610dec89828a01610d51565b9550506040610dfd89828a01610d7f565b9450506060610e0e89828a01610d7f565b9350506080610e1f89828a01610d7f565b92505060a0610e3089828a01610d7f565b9150509295509295509295565b600082825260208201905092915050565b7f4576656e742068617320616c7265616479206f63637572726564000000000000600082015250565b6000610e84601a83610e3d565b9150610e8f82610e4e565b602082019050919050565b60006020820190508181036000830152610eb381610e77565b9050919050565b7f496e76616c69642073656e646572206164647265737300000000000000000000600082015250565b6000610ef0601683610e3d565b9150610efb82610eba565b602082019050919050565b60006020820190508181036000830152610f1f81610ee3565b9050919050565b7f43616e6e6f74207472616e7366657220746f207a65726f206164647265737300600082015250565b6000610f5c601f83610e3d565b9150610f6782610f26565b602082019050919050565b60006020820190508181036000830152610f8b81610f4f565b9050919050565b7f53656e64657220616e6420726563697069656e742063616e6e6f74206265207460008201527f68652073616d6500000000000000000000000000000000000000000000000000602082015250565b6000610fee602783610e3d565b9150610ff982610f92565b604082019050919050565b6000602082019050818103600083015261101d81610fe1565b9050919050565b7f496e73756666696369656e74207469636b657473206f776e6564000000000000600082015250565b600061105a601a83610e3d565b915061106582611024565b602082019050919050565b600060208201905081810360008301526110898161104d565b9050919050565b7f4e487b7100000000000000000000000000000000000000000000000000000000600052601160045260246000fd5b60006110ca82610ad1565b91506110d583610ad1565b92508282026110e381610ad1565b915082820484148315176110fa576110f9611090565b5b5092915050565b7f496e73756666696369656e74207061796d656e742066726f6d2072656369706960008201527f656e740000000000000000000000000000000000000000000000000000000000602082015250565b600061115d602383610e3d565b915061116882611101565b604082019050919050565b6000602082019050818103600083015261118c81611150565b9050919050565b600081905092915050565b50565b60006111ae600083611193565b91506111b98261119e565b600082019050919050565b60006111cf826111a1565b9150819050919050565b7f4661696c656420746f207472616e73666572207061796d656e7420746f20657660008201527f656e7420636f6e74726163740000000000000000000000000000000000000000602082015250565b6000611235602c83610e3d565b9150611240826111d9565b604082019050919050565b6000602082019050818103600083015261126481611228565b9050919050565b600061127682610ad1565b915061128183610ad1565b925082820390508181111561129957611298611090565b5b92915050565b60006112aa82610ad1565b91506112b583610ad1565b92508282019050808211156112cd576112cc611090565b5b92915050565b60006040820190506112e86000830185610bdf565b6112f56020830184610bdf565b9392505050565b7f496e73756666696369656e742045746865722073656e74000000000000000000600082015250565b6000611332601783610e3d565b915061133d826112fc565b602082019050919050565b6000602082019050818103600083015261136181611325565b9050919050565b60008115159050919050565b61137d81611368565b811461138857600080fd5b50565b60008151905061139a81611374565b92915050565b6000602082840312156113b6576113b5610ac7565b5b60006113c48482850161138b565b91505092915050565b7f4661696c656420746f20757064617465207469636b657420636f756e74000000600082015250565b6000611403601d83610e3d565b915061140e826113cd565b602082019050919050565b60006020820190508181036000830152611432816113f6565b9050919050565b7f4661696c656420746f2073656e64204574686572000000000000000000000000600082015250565b600061146f601483610e3d565b915061147a82611439565b602082019050919050565b6000602082019050818103600083015261149e81611462565b905091905056fea2646970667358221220e5e6eb8f116a07b6e5494fd24ff3c30d068c584af2324a0a3243bd3b236b4f4464736f6c63430008120033",
  "linkReferences": {},
  "deployedLinkReferences": {}
}